{
	"data": {
		"bytecode": {
			"linkReferences": {},
			"object": "6080604052604051612fa4380380612fa4833981810160405281019061002591906105e6565b885f5f6101000a81548173ffffffffffffffffffffffffffffffffffffffff021916908373ffffffffffffffffffffffffffffffffffffffff1602179055508760015f6101000a81548173ffffffffffffffffffffffffffffffffffffffff021916908373ffffffffffffffffffffffffffffffffffffffff1602179055508660025f6101000a81548173ffffffffffffffffffffffffffffffffffffffff021916908373ffffffffffffffffffffffffffffffffffffffff1602179055508560035f6101000a81548173ffffffffffffffffffffffffffffffffffffffff021916908373ffffffffffffffffffffffffffffffffffffffff1602179055508460045f6101000a81548173ffffffffffffffffffffffffffffffffffffffff021916908373ffffffffffffffffffffffffffffffffffffffff1602179055504284116101a6576040517f08c379a000000000000000000000000000000000000000000000000000000000815260040161019d9061072a565b60405180910390fd5b836301e133806101b69190610775565b83116101cb6301e1338061033460201b60201c565b6040516020016101db9190610890565b6040516020818303038152906040529061022b576040517f08c379a00000000000000000000000000000000000000000000000000000000081526004016102229190610908565b60405180910390fd5b50826303c2670061023c9190610775565b82116102516303c2670061033460201b60201c565b60405160200161026191906109be565b604051602081830303815290604052906102b1576040517f08c379a00000000000000000000000000000000000000000000000000000000081526004016102a89190610908565b60405180910390fd5b508360058190555082600681905550816007819055505f6009819055505f600a819055505f600b819055506001811161031f576040517f08c379a000000000000000000000000000000000000000000000000000000000815260040161031690610a5e565b60405180910390fd5b80600c81905550505050505050505050610ad6565b60605f60016103488461040460201b60201c565b0190505f8167ffffffffffffffff81111561036657610365610a7c565b5b6040519080825280601f01601f1916602001820160405280156103985781602001600182028036833780820191505090505b5090505f82602083010190505b6001156103f9578080600190039150507f3031323334353637383961626364656600000000000000000000000000000000600a86061a8153600a85816103ee576103ed610aa9565b5b0494505f85036103a5575b819350505050919050565b5f5f5f90507a184f03e93ff9f4daa797ed6e38ed64bf6a1f0100000000000000008310610460577a184f03e93ff9f4daa797ed6e38ed64bf6a1f010000000000000000838161045657610455610aa9565b5b0492506040810190505b6d04ee2d6d415b85acef8100000000831061049d576d04ee2d6d415b85acef8100000000838161049357610492610aa9565b5b0492506020810190505b662386f26fc1000083106104cc57662386f26fc1000083816104c2576104c1610aa9565b5b0492506010810190505b6305f5e10083106104f5576305f5e10083816104eb576104ea610aa9565b5b0492506008810190505b612710831061051a5761271083816105105761050f610aa9565b5b0492506004810190505b6064831061053d576064838161053357610532610aa9565b5b0492506002810190505b600a831061054c576001810190505b80915050919050565b5f5ffd5b5f73ffffffffffffffffffffffffffffffffffffffff82169050919050565b5f61058282610559565b9050919050565b61059281610578565b811461059c575f5ffd5b50565b5f815190506105ad81610589565b92915050565b5f819050919050565b6105c5816105b3565b81146105cf575f5ffd5b50565b5f815190506105e0816105bc565b92915050565b5f5f5f5f5f5f5f5f5f6101208a8c03121561060457610603610555565b5b5f6106118c828d0161059f565b99505060206106228c828d0161059f565b98505060406106338c828d0161059f565b97505060606106448c828d0161059f565b96505060806106558c828d0161059f565b95505060a06106668c828d016105d2565b94505060c06106778c828d016105d2565b93505060e06106888c828d016105d2565b92505061010061069a8c828d016105d2565b9150509295985092959850929598565b5f82825260208201905092915050565b7f6368696c64456c69676962696c69747954696d657374616d70206d75737420625f8201527f6520696e20746865206675747572650000000000000000000000000000000000602082015250565b5f610714602f836106aa565b915061071f826106ba565b604082019050919050565b5f6020820190508181035f83015261074181610708565b9050919050565b7f4e487b71000000000000000000000000000000000000000000000000000000005f52601160045260245ffd5b5f61077f826105b3565b915061078a836105b3565b92508282019050808211156107a2576107a1610748565b5b92915050565b5f81905092915050565b7f506172656e742d456c69676962696c697479206d7573742062652061746c65615f8201527f7374200000000000000000000000000000000000000000000000000000000000602082015250565b5f61080c6023836107a8565b9150610817826107b2565b602382019050919050565b5f81519050919050565b8281835e5f83830152505050565b5f61084482610822565b61084e81856107a8565b935061085e81856020860161082c565b80840191505092915050565b7f20616865616420636f6d706172656420746f206368696c640000000000000000815250565b5f61089a82610800565b91506108a6828461083a565b91506108b18261086a565b60188201915081905092915050565b5f601f19601f8301169050919050565b5f6108da82610822565b6108e481856106aa565b93506108f481856020860161082c565b6108fd816108c0565b840191505092915050565b5f6020820190508181035f83015261092081846108d0565b905092915050565b7f4f627365727665722d456c69676962696c697479206d7573742062652061746c5f8201527f6561737420000000000000000000000000000000000000000000000000000000602082015250565b5f6109826025836107a8565b915061098d82610928565b602582019050919050565b7f20616865616420636f6d706172656420746f20706172656e7400000000000000815250565b5f6109c882610976565b91506109d4828461083a565b91506109df82610998565b60198201915081905092915050565b7f656d657267656e63795769746864726177616c5f676c6f62616c4c696d6974205f8201527f6d7573742062652067726561746572207468616e203100000000000000000000602082015250565b5f610a486036836106aa565b9150610a53826109ee565b604082019050919050565b5f6020820190508181035f830152610a7581610a3c565b9050919050565b7f4e487b71000000000000000000000000000000000000000000000000000000005f52604160045260245ffd5b7f4e487b71000000000000000000000000000000000000000000000000000000005f52601260045260245ffd5b6124c180610ae35f395ff3fe6080604052600436106100aa575f3560e01c8063ab5e89f911610063578063ab5e89f9146101a3578063b66b0c95146101cd578063b6992247146101f7578063d0a1e6e214610221578063f810125b14610249578063fb2420ae14610273576100ab565b806310ecf719146100ad578063275558f3146100d55780632e1a7d4d146100fd5780634344b094146101255780635107889a1461014f5780635d5a8d8a14610179576100ab565b5b005b3480156100b8575f5ffd5b506100d360048036038101906100ce91906116a7565b61029d565b005b3480156100e0575f5ffd5b506100fb60048036038101906100f691906116a7565b61040d565b005b348015610108575f5ffd5b50610123600480360381019061011e91906116a7565b6104ea565b005b348015610130575f5ffd5b5061013961097b565b60405161014691906116e1565b60405180910390f35b34801561015a575f5ffd5b5061016361099e565b60405161017091906116e1565b60405180910390f35b348015610184575f5ffd5b5061018d6109a6565b60405161019a91906116e1565b60405180910390f35b3480156101ae575f5ffd5b506101b76109ad565b6040516101c491906116e1565b60405180910390f35b3480156101d8575f5ffd5b506101e16109b5565b6040516101ee91906116e1565b60405180910390f35b348015610202575f5ffd5b5061020b6109be565b604051610218919061176a565b60405180910390f35b34801561022c575f5ffd5b50610247600480360381019061024291906116a7565b610ab9565b005b348015610254575f5ffd5b5061025d61106f565b60405161026a91906116e1565b60405180910390f35b34801561027e575f5ffd5b506102876111a1565b604051610294919061176a565b60405180910390f35b60035f9054906101000a900473ffffffffffffffffffffffffffffffffffffffff1673ffffffffffffffffffffffffffffffffffffffff163373ffffffffffffffffffffffffffffffffffffffff161480610344575060045f9054906101000a900473ffffffffffffffffffffffffffffffffffffffff1673ffffffffffffffffffffffffffffffffffffffff163373ffffffffffffffffffffffffffffffffffffffff16145b610383576040517f08c379a000000000000000000000000000000000000000000000000000000000815260040161037a90611820565b60405180910390fd5b600c548111156103c8576040517f08c379a00000000000000000000000000000000000000000000000000000000081526004016103bf906118d4565b60405180910390fd5b8060085f3373ffffffffffffffffffffffffffffffffffffffff1673ffffffffffffffffffffffffffffffffffffffff1681526020019081526020015f208190555050565b5f5f9054906101000a900473ffffffffffffffffffffffffffffffffffffffff1673ffffffffffffffffffffffffffffffffffffffff163373ffffffffffffffffffffffffffffffffffffffff161461049b576040517f08c379a000000000000000000000000000000000000000000000000000000000815260040161049290611962565b60405180910390fd5b600c548111156104e0576040517f08c379a00000000000000000000000000000000000000000000000000000000081526004016104d7906118d4565b60405180910390fd5b8060098190555050565b5f811161052c576040517f08c379a0000000000000000000000000000000000000000000000000000000008152600401610523906119f0565b60405180910390fd5b5f471161056e576040517f08c379a000000000000000000000000000000000000000000000000000000000815260040161056590611a58565b60405180910390fd5b5f8190508047101561057e574790505b5f5f9054906101000a900473ffffffffffffffffffffffffffffffffffffffff1673ffffffffffffffffffffffffffffffffffffffff163373ffffffffffffffffffffffffffffffffffffffff16036106475760055442116105e16005546111ea565b6040516020016105f19190611afc565b60405160208183030381529060405290610641576040517f08c379a0000000000000000000000000000000000000000000000000000000008152600401610638919061176a565b60405180910390fd5b506108ce565b60015f9054906101000a900473ffffffffffffffffffffffffffffffffffffffff1673ffffffffffffffffffffffffffffffffffffffff163373ffffffffffffffffffffffffffffffffffffffff1614806106ee575060025f9054906101000a900473ffffffffffffffffffffffffffffffffffffffff1673ffffffffffffffffffffffffffffffffffffffff163373ffffffffffffffffffffffffffffffffffffffff16145b156107695760065442116107036006546111ea565b6040516020016107139190611ba0565b60405160208183030381529060405290610763576040517f08c379a000000000000000000000000000000000000000000000000000000000815260040161075a919061176a565b60405180910390fd5b506108cd565b60035f9054906101000a900473ffffffffffffffffffffffffffffffffffffffff1673ffffffffffffffffffffffffffffffffffffffff163373ffffffffffffffffffffffffffffffffffffffff161480610810575060045f9054906101000a900473ffffffffffffffffffffffffffffffffffffffff1673ffffffffffffffffffffffffffffffffffffffff163373ffffffffffffffffffffffffffffffffffffffff16145b1561088b5760075442116108256007546111ea565b6040516020016108359190611c40565b60405160208183030381529060405290610885576040517f08c379a000000000000000000000000000000000000000000000000000000000815260040161087c919061176a565b60405180910390fd5b506108cc565b5f6108cb576040517f08c379a00000000000000000000000000000000000000000000000000000000081526004016108c290611d06565b60405180910390fd5b5b5b5b5f3373ffffffffffffffffffffffffffffffffffffffff16826040516108f390611d51565b5f6040518083038185875af1925050503d805f811461092d576040519150601f19603f3d011682016040523d82523d5f602084013e610932565b606091505b5050905080610976576040517f08c379a000000000000000000000000000000000000000000000000000000000815260040161096d90611daf565b60405180910390fd5b505050565b5f5f61098561106f565b90506009548110156109975760095490505b8091505090565b6303c2670081565b6201518081565b6301e1338081565b5f600c54905090565b60606109e95f5f9054906101000a900473ffffffffffffffffffffffffffffffffffffffff166112b4565b610a1360015f9054906101000a900473ffffffffffffffffffffffffffffffffffffffff166112b4565b610a3d60025f9054906101000a900473ffffffffffffffffffffffffffffffffffffffff166112b4565b610a6760035f9054906101000a900473ffffffffffffffffffffffffffffffffffffffff166112b4565b610a9160045f9054906101000a900473ffffffffffffffffffffffffffffffffffffffff166112b4565b604051602001610aa5959493929190611eb1565b604051602081830303815290604052905090565b5f8111610afb576040517f08c379a0000000000000000000000000000000000000000000000000000000008152600401610af2906119f0565b60405180910390fd5b5f4711610b3d576040517f08c379a0000000000000000000000000000000000000000000000000000000008152600401610b3490611a58565b60405180910390fd5b5f81905081471015610b4d574790505b5f60085f60035f9054906101000a900473ffffffffffffffffffffffffffffffffffffffff1673ffffffffffffffffffffffffffffffffffffffff1673ffffffffffffffffffffffffffffffffffffffff1681526020019081526020015f2054905060085f60045f9054906101000a900473ffffffffffffffffffffffffffffffffffffffff1673ffffffffffffffffffffffffffffffffffffffff1673ffffffffffffffffffffffffffffffffffffffff1681526020019081526020015f2054811015610c775760085f60045f9054906101000a900473ffffffffffffffffffffffffffffffffffffffff1673ffffffffffffffffffffffffffffffffffffffff1673ffffffffffffffffffffffffffffffffffffffff1681526020019081526020015f205490505b5f5f9054906101000a900473ffffffffffffffffffffffffffffffffffffffff1673ffffffffffffffffffffffffffffffffffffffff163373ffffffffffffffffffffffffffffffffffffffff1603610dc45780821115610cd7826111ea565b604051602001610ce79190611ff2565b60405160208183030381529060405290610d37576040517f08c379a0000000000000000000000000000000000000000000000000000000008152600401610d2e919061176a565b60405180910390fd5b5062015180600a54610d499190612040565b4211610d57620151806111ea565b604051602001610d679190612109565b60405160208183030381529060405290610db7576040517f08c379a0000000000000000000000000000000000000000000000000000000008152600401610dae919061176a565b60405180910390fd5b5042600a81905550610fc1565b60015f9054906101000a900473ffffffffffffffffffffffffffffffffffffffff1673ffffffffffffffffffffffffffffffffffffffff163373ffffffffffffffffffffffffffffffffffffffff161480610e6b575060025f9054906101000a900473ffffffffffffffffffffffffffffffffffffffff1673ffffffffffffffffffffffffffffffffffffffff163373ffffffffffffffffffffffffffffffffffffffff16145b15610f7f575f819050600954811015610e845760095490505b80831115610e91826111ea565b604051602001610ea191906121a9565b60405160208183030381529060405290610ef1576040517f08c379a0000000000000000000000000000000000000000000000000000000008152600401610ee8919061176a565b60405180910390fd5b5062015180600b54610f039190612040565b4211610f11620151806111ea565b604051602001610f2191906121f0565b60405160208183030381529060405290610f71576040517f08c379a0000000000000000000000000000000000000000000000000000000008152600401610f68919061176a565b60405180910390fd5b5042600b8190555050610fc0565b5f610fbf576040517f08c379a0000000000000000000000000000000000000000000000000000000008152600401610fb690612290565b60405180910390fd5b5b5b5f3373ffffffffffffffffffffffffffffffffffffffff1683604051610fe690611d51565b5f6040518083038185875af1925050503d805f8114611020576040519150601f19603f3d011682016040523d82523d5f602084013e611025565b606091505b5050905080611069576040517f08c379a000000000000000000000000000000000000000000000000000000000815260040161106090611daf565b60405180910390fd5b50505050565b5f5f60085f60035f9054906101000a900473ffffffffffffffffffffffffffffffffffffffff1673ffffffffffffffffffffffffffffffffffffffff1673ffffffffffffffffffffffffffffffffffffffff1681526020019081526020015f2054905060085f60045f9054906101000a900473ffffffffffffffffffffffffffffffffffffffff1673ffffffffffffffffffffffffffffffffffffffff1673ffffffffffffffffffffffffffffffffffffffff1681526020019081526020015f205481101561119a5760085f60045f9054906101000a900473ffffffffffffffffffffffffffffffffffffffff1673ffffffffffffffffffffffffffffffffffffffff1673ffffffffffffffffffffffffffffffffffffffff1681526020019081526020015f205490505b8091505090565b60606111ae6005546111ea565b6111b96006546111ea565b6111c46007546111ea565b6040516020016111d6939291906122fa565b604051602081830303815290604052905090565b60605f60016111f8846112e1565b0190505f8167ffffffffffffffff81111561121657611215612375565b5b6040519080825280601f01601f1916602001820160405280156112485781602001600182028036833780820191505090505b5090505f82602083010190505b6001156112a9578080600190039150507f3031323334353637383961626364656600000000000000000000000000000000600a86061a8153600a858161129e5761129d6123a2565b5b0494505f8503611255575b819350505050919050565b60606112da8273ffffffffffffffffffffffffffffffffffffffff16601460ff16611432565b9050919050565b5f5f5f90507a184f03e93ff9f4daa797ed6e38ed64bf6a1f010000000000000000831061133d577a184f03e93ff9f4daa797ed6e38ed64bf6a1f0100000000000000008381611333576113326123a2565b5b0492506040810190505b6d04ee2d6d415b85acef8100000000831061137a576d04ee2d6d415b85acef810000000083816113705761136f6123a2565b5b0492506020810190505b662386f26fc1000083106113a957662386f26fc10000838161139f5761139e6123a2565b5b0492506010810190505b6305f5e10083106113d2576305f5e10083816113c8576113c76123a2565b5b0492506008810190505b61271083106113f75761271083816113ed576113ec6123a2565b5b0492506004810190505b6064831061141a57606483816114105761140f6123a2565b5b0492506002810190505b600a8310611429576001810190505b80915050919050565b60605f8390505f600284600261144891906123cf565b6114529190612040565b67ffffffffffffffff81111561146b5761146a612375565b5b6040519080825280601f01601f19166020018201604052801561149d5781602001600182028036833780820191505090505b5090507f3000000000000000000000000000000000000000000000000000000000000000815f815181106114d4576114d3612410565b5b60200101907effffffffffffffffffffffffffffffffffffffffffffffffffffffffffffff191690815f1a9053507f78000000000000000000000000000000000000000000000000000000000000008160018151811061153757611536612410565b5b60200101907effffffffffffffffffffffffffffffffffffffffffffffffffffffffffffff191690815f1a9053505f600185600261157591906123cf565b61157f9190612040565b90505b600181111561161e577f3031323334353637383961626364656600000000000000000000000000000000600f8416601081106115c1576115c0612410565b5b1a60f81b8282815181106115d8576115d7612410565b5b60200101907effffffffffffffffffffffffffffffffffffffffffffffffffffffffffffff191690815f1a905350600483901c9250806116179061243d565b9050611582565b505f82146116655784846040517fe22e27eb00000000000000000000000000000000000000000000000000000000815260040161165c929190612464565b60405180910390fd5b809250505092915050565b5f5ffd5b5f819050919050565b61168681611674565b8114611690575f5ffd5b50565b5f813590506116a18161167d565b92915050565b5f602082840312156116bc576116bb611670565b5b5f6116c984828501611693565b91505092915050565b6116db81611674565b82525050565b5f6020820190506116f45f8301846116d2565b92915050565b5f81519050919050565b5f82825260208201905092915050565b8281835e5f83830152505050565b5f601f19601f8301169050919050565b5f61173c826116fa565b6117468185611704565b9350611756818560208601611714565b61175f81611722565b840191505092915050565b5f6020820190508181035f8301526117828184611732565b905092915050565b7f4f6e6c79206f627365727665722873292061726520616c6c6f77656420746f205f8201527f757064617465206368696c64456d657267656e63795769746864726177616c4c60208201527f696d697400000000000000000000000000000000000000000000000000000000604082015250565b5f61180a604483611704565b91506118158261178a565b606082019050919050565b5f6020820190508181035f830152611837816117fe565b9050919050565b7f416d6f756e74206d757374206265206c657373207468616e206f7220657175615f8201527f6c20746f2074686520656d657267656e63795769746864726177616c5f676c6f60208201527f62616c4c696d6974000000000000000000000000000000000000000000000000604082015250565b5f6118be604883611704565b91506118c98261183e565b606082019050919050565b5f6020820190508181035f8301526118eb816118b2565b9050919050565b7f4f6e6c79206368696c6420697320616c6c6f77656420746f20757064617465205f8201527f706172656e74456d657267656e63795769746864726177616c4c696d69740000602082015250565b5f61194c603e83611704565b9150611957826118f2565b604082019050919050565b5f6020820190508181035f83015261197981611940565b9050919050565b7f416d6f756e74206d7573742062652067726561746572207468616e206f7220655f8201527f7175616c20746f20300000000000000000000000000000000000000000000000602082015250565b5f6119da602983611704565b91506119e582611980565b604082019050919050565b5f6020820190508181035f830152611a07816119ce565b9050919050565b7f4e6f20616d6f756e74206c65667420746f2077697468647261770000000000005f82015250565b5f611a42601a83611704565b9150611a4d82611a0e565b602082019050919050565b5f6020820190508181035f830152611a6f81611a36565b9050919050565b7f4368696c64206d75737420776169742074696c6c2074696d657374616d700000815250565b5f81905092915050565b5f611ab0826116fa565b611aba8185611a9c565b9350611aca818560208601611714565b80840191505092915050565b7f20746f206d616b65206e6f726d616c207769746864726177616c287329000000815250565b5f611b0682611a76565b601e82019150611b168284611aa6565b9150611b2182611ad6565b601d8201915081905092915050565b7f506172656e74287329206d75737420776169742074696c6c2074696d657374615f8201527f6d70000000000000000000000000000000000000000000000000000000000000602082015250565b5f611b8a602283611a9c565b9150611b9582611b30565b602282019050919050565b5f611baa82611b7e565b9150611bb68284611aa6565b9150611bc182611ad6565b601d8201915081905092915050565b7f4f62736572766572287329206d75737420776169742074696c6c2074696d65735f8201527f74616d7000000000000000000000000000000000000000000000000000000000602082015250565b5f611c2a602483611a9c565b9150611c3582611bd0565b602482019050919050565b5f611c4a82611c1e565b9150611c568284611aa6565b9150611c6182611ad6565b601d8201915081905092915050565b7f4f6e6c79206368696c642c20706172656e742873292026206f627365727665725f8201527f2873292061726520616c6c6f77656420746f206d616b6520776974686472617760208201527f616c730000000000000000000000000000000000000000000000000000000000604082015250565b5f611cf0604383611704565b9150611cfb82611c70565b606082019050919050565b5f6020820190508181035f830152611d1d81611ce4565b9050919050565b5f81905092915050565b50565b5f611d3c5f83611d24565b9150611d4782611d2e565b5f82019050919050565b5f611d5b82611d31565b9150819050919050565b7f5769746864726177616c206661696c65640000000000000000000000000000005f82015250565b5f611d99601183611704565b9150611da482611d65565b602082019050919050565b5f6020820190508181035f830152611dc681611d8d565b9050919050565b7f4368696c64000000000000000000000000000000000000000000000000000000815250565b7f20200a0000000000000000000000000000000000000000000000000000000000815250565b7f506172656e742d31000000000000000000000000000000000000000000000000815250565b7f506172656e742d32000000000000000000000000000000000000000000000000815250565b7f4f627365727665722d3100000000000000000000000000000000000000000000815250565b7f4f627365727665722d3200000000000000000000000000000000000000000000815250565b5f611ebb82611dcd565b600582019150611ecb8288611aa6565b9150611ed682611df3565b600382019150611ee582611e19565b600882019150611ef58287611aa6565b9150611f0082611df3565b600382019150611f0f82611e3f565b600882019150611f1f8286611aa6565b9150611f2a82611df3565b600382019150611f3982611e65565b600a82019150611f498285611aa6565b9150611f5482611df3565b600382019150611f6382611e8b565b600a82019150611f738284611aa6565b91508190509695505050505050565b7f4d617820656d657267656e63792d7769746864726177616c206c696d697420665f8201527f6f72206368696c64203d20000000000000000000000000000000000000000000602082015250565b5f611fdc602b83611a9c565b9150611fe782611f82565b602b82019050919050565b5f611ffc82611fd0565b91506120088284611aa6565b915081905092915050565b7f4e487b71000000000000000000000000000000000000000000000000000000005f52601160045260245ffd5b5f61204a82611674565b915061205583611674565b925082820190508082111561206d5761206c612013565b5b92915050565b7f4368696c64206d75737420776169742061746c65617374200000000000000000815250565b7f207365636f6e64732074696c6c206e65787420656d657267656e6379207769745f8201527f6864726177616c2063616e206265206d61646500000000000000000000000000602082015250565b5f6120f3603383611a9c565b91506120fe82612099565b603382019050919050565b5f61211382612073565b6018820191506121238284611aa6565b915061212e826120e7565b915081905092915050565b7f4d617820656d657267656e63792d7769746864726177616c206c696d697420665f8201527f6f7220706172656e7473203d2000000000000000000000000000000000000000602082015250565b5f612193602d83611a9c565b915061219e82612139565b602d82019050919050565b5f6121b382612187565b91506121bf8284611aa6565b915081905092915050565b7f506172656e74287329206d75737420776169742061746c656173742000000000815250565b5f6121fa826121ca565b601c8201915061220a8284611aa6565b9150612215826120e7565b915081905092915050565b7f456d657267656e6379207769746864726177616c2063616e206f6e6c792062655f8201527f206d61646520627920706172656e747320616e64206368696c64000000000000602082015250565b5f61227a603a83611704565b915061228582612220565b604082019050919050565b5f6020820190508181035f8301526122a78161226e565b9050919050565b7f506172656e742873290000000000000000000000000000000000000000000000815250565b7f4f62736572766572287329000000000000000000000000000000000000000000815250565b5f61230482611dcd565b6005820191506123148286611aa6565b915061231f82611df3565b60038201915061232e826122ae565b60098201915061233e8285611aa6565b915061234982611df3565b600382019150612358826122d4565b600b820191506123688284611aa6565b9150819050949350505050565b7f4e487b71000000000000000000000000000000000000000000000000000000005f52604160045260245ffd5b7f4e487b71000000000000000000000000000000000000000000000000000000005f52601260045260245ffd5b5f6123d982611674565b91506123e483611674565b92508282026123f281611674565b9150828204841483151761240957612408612013565b5b5092915050565b7f4e487b71000000000000000000000000000000000000000000000000000000005f52603260045260245ffd5b5f61244782611674565b91505f820361245957612458612013565b5b600182039050919050565b5f6040820190506124775f8301856116d2565b61248460208301846116d2565b939250505056fea2646970667358221220a818f9ca6bada55ed0395c1034ec6ad7b5a5703473508ea4e078f3c4c68bf69664736f6c634300081e0033",
			"opcodes": "PUSH1 0x80 PUSH1 0x40 MSTORE PUSH1 0x40 MLOAD PUSH2 0x2FA4 CODESIZE SUB DUP1 PUSH2 0x2FA4 DUP4 CODECOPY DUP2 DUP2 ADD PUSH1 0x40 MSTORE DUP2 ADD SWAP1 PUSH2 0x25 SWAP2 SWAP1 PUSH2 0x5E6 JUMP JUMPDEST DUP9 PUSH0 PUSH0 PUSH2 0x100 EXP DUP2 SLOAD DUP2 PUSH20 0xFFFFFFFFFFFFFFFFFFFFFFFFFFFFFFFFFFFFFFFF MUL NOT AND SWAP1 DUP4 PUSH20 0xFFFFFFFFFFFFFFFFFFFFFFFFFFFFFFFFFFFFFFFF AND MUL OR SWAP1 SSTORE POP DUP8 PUSH1 0x1 PUSH0 PUSH2 0x100 EXP DUP2 SLOAD DUP2 PUSH20 0xFFFFFFFFFFFFFFFFFFFFFFFFFFFFFFFFFFFFFFFF MUL NOT AND SWAP1 DUP4 PUSH20 0xFFFFFFFFFFFFFFFFFFFFFFFFFFFFFFFFFFFFFFFF AND MUL OR SWAP1 SSTORE POP DUP7 PUSH1 0x2 PUSH0 PUSH2 0x100 EXP DUP2 SLOAD DUP2 PUSH20 0xFFFFFFFFFFFFFFFFFFFFFFFFFFFFFFFFFFFFFFFF MUL NOT AND SWAP1 DUP4 PUSH20 0xFFFFFFFFFFFFFFFFFFFFFFFFFFFFFFFFFFFFFFFF AND MUL OR SWAP1 SSTORE POP DUP6 PUSH1 0x3 PUSH0 PUSH2 0x100 EXP DUP2 SLOAD DUP2 PUSH20 0xFFFFFFFFFFFFFFFFFFFFFFFFFFFFFFFFFFFFFFFF MUL NOT AND SWAP1 DUP4 PUSH20 0xFFFFFFFFFFFFFFFFFFFFFFFFFFFFFFFFFFFFFFFF AND MUL OR SWAP1 SSTORE POP DUP5 PUSH1 0x4 PUSH0 PUSH2 0x100 EXP DUP2 SLOAD DUP2 PUSH20 0xFFFFFFFFFFFFFFFFFFFFFFFFFFFFFFFFFFFFFFFF MUL NOT AND SWAP1 DUP4 PUSH20 0xFFFFFFFFFFFFFFFFFFFFFFFFFFFFFFFFFFFFFFFF AND MUL OR SWAP1 SSTORE POP TIMESTAMP DUP5 GT PUSH2 0x1A6 JUMPI PUSH1 0x40 MLOAD PUSH32 0x8C379A000000000000000000000000000000000000000000000000000000000 DUP2 MSTORE PUSH1 0x4 ADD PUSH2 0x19D SWAP1 PUSH2 0x72A JUMP JUMPDEST PUSH1 0x40 MLOAD DUP1 SWAP2 SUB SWAP1 REVERT JUMPDEST DUP4 PUSH4 0x1E13380 PUSH2 0x1B6 SWAP2 SWAP1 PUSH2 0x775 JUMP JUMPDEST DUP4 GT PUSH2 0x1CB PUSH4 0x1E13380 PUSH2 0x334 PUSH1 0x20 SHL PUSH1 0x20 SHR JUMP JUMPDEST PUSH1 0x40 MLOAD PUSH1 0x20 ADD PUSH2 0x1DB SWAP2 SWAP1 PUSH2 0x890 JUMP JUMPDEST PUSH1 0x40 MLOAD PUSH1 0x20 DUP2 DUP4 SUB SUB DUP2 MSTORE SWAP1 PUSH1 0x40 MSTORE SWAP1 PUSH2 0x22B JUMPI PUSH1 0x40 MLOAD PUSH32 0x8C379A000000000000000000000000000000000000000000000000000000000 DUP2 MSTORE PUSH1 0x4 ADD PUSH2 0x222 SWAP2 SWAP1 PUSH2 0x908 JUMP JUMPDEST PUSH1 0x40 MLOAD DUP1 SWAP2 SUB SWAP1 REVERT JUMPDEST POP DUP3 PUSH4 0x3C26700 PUSH2 0x23C SWAP2 SWAP1 PUSH2 0x775 JUMP JUMPDEST DUP3 GT PUSH2 0x251 PUSH4 0x3C26700 PUSH2 0x334 PUSH1 0x20 SHL PUSH1 0x20 SHR JUMP JUMPDEST PUSH1 0x40 MLOAD PUSH1 0x20 ADD PUSH2 0x261 SWAP2 SWAP1 PUSH2 0x9BE JUMP JUMPDEST PUSH1 0x40 MLOAD PUSH1 0x20 DUP2 DUP4 SUB SUB DUP2 MSTORE SWAP1 PUSH1 0x40 MSTORE SWAP1 PUSH2 0x2B1 JUMPI PUSH1 0x40 MLOAD PUSH32 0x8C379A000000000000000000000000000000000000000000000000000000000 DUP2 MSTORE PUSH1 0x4 ADD PUSH2 0x2A8 SWAP2 SWAP1 PUSH2 0x908 JUMP JUMPDEST PUSH1 0x40 MLOAD DUP1 SWAP2 SUB SWAP1 REVERT JUMPDEST POP DUP4 PUSH1 0x5 DUP2 SWAP1 SSTORE POP DUP3 PUSH1 0x6 DUP2 SWAP1 SSTORE POP DUP2 PUSH1 0x7 DUP2 SWAP1 SSTORE POP PUSH0 PUSH1 0x9 DUP2 SWAP1 SSTORE POP PUSH0 PUSH1 0xA DUP2 SWAP1 SSTORE POP PUSH0 PUSH1 0xB DUP2 SWAP1 SSTORE POP PUSH1 0x1 DUP2 GT PUSH2 0x31F JUMPI PUSH1 0x40 MLOAD PUSH32 0x8C379A000000000000000000000000000000000000000000000000000000000 DUP2 MSTORE PUSH1 0x4 ADD PUSH2 0x316 SWAP1 PUSH2 0xA5E JUMP JUMPDEST PUSH1 0x40 MLOAD DUP1 SWAP2 SUB SWAP1 REVERT JUMPDEST DUP1 PUSH1 0xC DUP2 SWAP1 SSTORE POP POP POP POP POP POP POP POP POP POP PUSH2 0xAD6 JUMP JUMPDEST PUSH1 0x60 PUSH0 PUSH1 0x1 PUSH2 0x348 DUP5 PUSH2 0x404 PUSH1 0x20 SHL PUSH1 0x20 SHR JUMP JUMPDEST ADD SWAP1 POP PUSH0 DUP2 PUSH8 0xFFFFFFFFFFFFFFFF DUP2 GT ISZERO PUSH2 0x366 JUMPI PUSH2 0x365 PUSH2 0xA7C JUMP JUMPDEST JUMPDEST PUSH1 0x40 MLOAD SWAP1 DUP1 DUP3 MSTORE DUP1 PUSH1 0x1F ADD PUSH1 0x1F NOT AND PUSH1 0x20 ADD DUP3 ADD PUSH1 0x40 MSTORE DUP1 ISZERO PUSH2 0x398 JUMPI DUP2 PUSH1 0x20 ADD PUSH1 0x1 DUP3 MUL DUP1 CALLDATASIZE DUP4 CALLDATACOPY DUP1 DUP3 ADD SWAP2 POP POP SWAP1 POP JUMPDEST POP SWAP1 POP PUSH0 DUP3 PUSH1 0x20 DUP4 ADD ADD SWAP1 POP JUMPDEST PUSH1 0x1 ISZERO PUSH2 0x3F9 JUMPI DUP1 DUP1 PUSH1 0x1 SWAP1 SUB SWAP2 POP POP PUSH32 0x3031323334353637383961626364656600000000000000000000000000000000 PUSH1 0xA DUP7 MOD BYTE DUP2 MSTORE8 PUSH1 0xA DUP6 DUP2 PUSH2 0x3EE JUMPI PUSH2 0x3ED PUSH2 0xAA9 JUMP JUMPDEST JUMPDEST DIV SWAP5 POP PUSH0 DUP6 SUB PUSH2 0x3A5 JUMPI JUMPDEST DUP2 SWAP4 POP POP POP POP SWAP2 SWAP1 POP JUMP JUMPDEST PUSH0 PUSH0 PUSH0 SWAP1 POP PUSH27 0x184F03E93FF9F4DAA797ED6E38ED64BF6A1F010000000000000000 DUP4 LT PUSH2 0x460 JUMPI PUSH27 0x184F03E93FF9F4DAA797ED6E38ED64BF6A1F010000000000000000 DUP4 DUP2 PUSH2 0x456 JUMPI PUSH2 0x455 PUSH2 0xAA9 JUMP JUMPDEST JUMPDEST DIV SWAP3 POP PUSH1 0x40 DUP2 ADD SWAP1 POP JUMPDEST PUSH14 0x4EE2D6D415B85ACEF8100000000 DUP4 LT PUSH2 0x49D JUMPI PUSH14 0x4EE2D6D415B85ACEF8100000000 DUP4 DUP2 PUSH2 0x493 JUMPI PUSH2 0x492 PUSH2 0xAA9 JUMP JUMPDEST JUMPDEST DIV SWAP3 POP PUSH1 0x20 DUP2 ADD SWAP1 POP JUMPDEST PUSH7 0x2386F26FC10000 DUP4 LT PUSH2 0x4CC JUMPI PUSH7 0x2386F26FC10000 DUP4 DUP2 PUSH2 0x4C2 JUMPI PUSH2 0x4C1 PUSH2 0xAA9 JUMP JUMPDEST JUMPDEST DIV SWAP3 POP PUSH1 0x10 DUP2 ADD SWAP1 POP JUMPDEST PUSH4 0x5F5E100 DUP4 LT PUSH2 0x4F5 JUMPI PUSH4 0x5F5E100 DUP4 DUP2 PUSH2 0x4EB JUMPI PUSH2 0x4EA PUSH2 0xAA9 JUMP JUMPDEST JUMPDEST DIV SWAP3 POP PUSH1 0x8 DUP2 ADD SWAP1 POP JUMPDEST PUSH2 0x2710 DUP4 LT PUSH2 0x51A JUMPI PUSH2 0x2710 DUP4 DUP2 PUSH2 0x510 JUMPI PUSH2 0x50F PUSH2 0xAA9 JUMP JUMPDEST JUMPDEST DIV SWAP3 POP PUSH1 0x4 DUP2 ADD SWAP1 POP JUMPDEST PUSH1 0x64 DUP4 LT PUSH2 0x53D JUMPI PUSH1 0x64 DUP4 DUP2 PUSH2 0x533 JUMPI PUSH2 0x532 PUSH2 0xAA9 JUMP JUMPDEST JUMPDEST DIV SWAP3 POP PUSH1 0x2 DUP2 ADD SWAP1 POP JUMPDEST PUSH1 0xA DUP4 LT PUSH2 0x54C JUMPI PUSH1 0x1 DUP2 ADD SWAP1 POP JUMPDEST DUP1 SWAP2 POP POP SWAP2 SWAP1 POP JUMP JUMPDEST PUSH0 PUSH0 REVERT JUMPDEST PUSH0 PUSH20 0xFFFFFFFFFFFFFFFFFFFFFFFFFFFFFFFFFFFFFFFF DUP3 AND SWAP1 POP SWAP2 SWAP1 POP JUMP JUMPDEST PUSH0 PUSH2 0x582 DUP3 PUSH2 0x559 JUMP JUMPDEST SWAP1 POP SWAP2 SWAP1 POP JUMP JUMPDEST PUSH2 0x592 DUP2 PUSH2 0x578 JUMP JUMPDEST DUP2 EQ PUSH2 0x59C JUMPI PUSH0 PUSH0 REVERT JUMPDEST POP JUMP JUMPDEST PUSH0 DUP2 MLOAD SWAP1 POP PUSH2 0x5AD DUP2 PUSH2 0x589 JUMP JUMPDEST SWAP3 SWAP2 POP POP JUMP JUMPDEST PUSH0 DUP2 SWAP1 POP SWAP2 SWAP1 POP JUMP JUMPDEST PUSH2 0x5C5 DUP2 PUSH2 0x5B3 JUMP JUMPDEST DUP2 EQ PUSH2 0x5CF JUMPI PUSH0 PUSH0 REVERT JUMPDEST POP JUMP JUMPDEST PUSH0 DUP2 MLOAD SWAP1 POP PUSH2 0x5E0 DUP2 PUSH2 0x5BC JUMP JUMPDEST SWAP3 SWAP2 POP POP JUMP JUMPDEST PUSH0 PUSH0 PUSH0 PUSH0 PUSH0 PUSH0 PUSH0 PUSH0 PUSH0 PUSH2 0x120 DUP11 DUP13 SUB SLT ISZERO PUSH2 0x604 JUMPI PUSH2 0x603 PUSH2 0x555 JUMP JUMPDEST JUMPDEST PUSH0 PUSH2 0x611 DUP13 DUP3 DUP14 ADD PUSH2 0x59F JUMP JUMPDEST SWAP10 POP POP PUSH1 0x20 PUSH2 0x622 DUP13 DUP3 DUP14 ADD PUSH2 0x59F JUMP JUMPDEST SWAP9 POP POP PUSH1 0x40 PUSH2 0x633 DUP13 DUP3 DUP14 ADD PUSH2 0x59F JUMP JUMPDEST SWAP8 POP POP PUSH1 0x60 PUSH2 0x644 DUP13 DUP3 DUP14 ADD PUSH2 0x59F JUMP JUMPDEST SWAP7 POP POP PUSH1 0x80 PUSH2 0x655 DUP13 DUP3 DUP14 ADD PUSH2 0x59F JUMP JUMPDEST SWAP6 POP POP PUSH1 0xA0 PUSH2 0x666 DUP13 DUP3 DUP14 ADD PUSH2 0x5D2 JUMP JUMPDEST SWAP5 POP POP PUSH1 0xC0 PUSH2 0x677 DUP13 DUP3 DUP14 ADD PUSH2 0x5D2 JUMP JUMPDEST SWAP4 POP POP PUSH1 0xE0 PUSH2 0x688 DUP13 DUP3 DUP14 ADD PUSH2 0x5D2 JUMP JUMPDEST SWAP3 POP POP PUSH2 0x100 PUSH2 0x69A DUP13 DUP3 DUP14 ADD PUSH2 0x5D2 JUMP JUMPDEST SWAP2 POP POP SWAP3 SWAP6 SWAP9 POP SWAP3 SWAP6 SWAP9 POP SWAP3 SWAP6 SWAP9 JUMP JUMPDEST PUSH0 DUP3 DUP3 MSTORE PUSH1 0x20 DUP3 ADD SWAP1 POP SWAP3 SWAP2 POP POP JUMP JUMPDEST PUSH32 0x6368696C64456C69676962696C69747954696D657374616D70206D7573742062 PUSH0 DUP3 ADD MSTORE PUSH32 0x6520696E20746865206675747572650000000000000000000000000000000000 PUSH1 0x20 DUP3 ADD MSTORE POP JUMP JUMPDEST PUSH0 PUSH2 0x714 PUSH1 0x2F DUP4 PUSH2 0x6AA JUMP JUMPDEST SWAP2 POP PUSH2 0x71F DUP3 PUSH2 0x6BA JUMP JUMPDEST PUSH1 0x40 DUP3 ADD SWAP1 POP SWAP2 SWAP1 POP JUMP JUMPDEST PUSH0 PUSH1 0x20 DUP3 ADD SWAP1 POP DUP2 DUP2 SUB PUSH0 DUP4 ADD MSTORE PUSH2 0x741 DUP2 PUSH2 0x708 JUMP JUMPDEST SWAP1 POP SWAP2 SWAP1 POP JUMP JUMPDEST PUSH32 0x4E487B7100000000000000000000000000000000000000000000000000000000 PUSH0 MSTORE PUSH1 0x11 PUSH1 0x4 MSTORE PUSH1 0x24 PUSH0 REVERT JUMPDEST PUSH0 PUSH2 0x77F DUP3 PUSH2 0x5B3 JUMP JUMPDEST SWAP2 POP PUSH2 0x78A DUP4 PUSH2 0x5B3 JUMP JUMPDEST SWAP3 POP DUP3 DUP3 ADD SWAP1 POP DUP1 DUP3 GT ISZERO PUSH2 0x7A2 JUMPI PUSH2 0x7A1 PUSH2 0x748 JUMP JUMPDEST JUMPDEST SWAP3 SWAP2 POP POP JUMP JUMPDEST PUSH0 DUP2 SWAP1 POP SWAP3 SWAP2 POP POP JUMP JUMPDEST PUSH32 0x506172656E742D456C69676962696C697479206D7573742062652061746C6561 PUSH0 DUP3 ADD MSTORE PUSH32 0x7374200000000000000000000000000000000000000000000000000000000000 PUSH1 0x20 DUP3 ADD MSTORE POP JUMP JUMPDEST PUSH0 PUSH2 0x80C PUSH1 0x23 DUP4 PUSH2 0x7A8 JUMP JUMPDEST SWAP2 POP PUSH2 0x817 DUP3 PUSH2 0x7B2 JUMP JUMPDEST PUSH1 0x23 DUP3 ADD SWAP1 POP SWAP2 SWAP1 POP JUMP JUMPDEST PUSH0 DUP2 MLOAD SWAP1 POP SWAP2 SWAP1 POP JUMP JUMPDEST DUP3 DUP2 DUP4 MCOPY PUSH0 DUP4 DUP4 ADD MSTORE POP POP POP JUMP JUMPDEST PUSH0 PUSH2 0x844 DUP3 PUSH2 0x822 JUMP JUMPDEST PUSH2 0x84E DUP2 DUP6 PUSH2 0x7A8 JUMP JUMPDEST SWAP4 POP PUSH2 0x85E DUP2 DUP6 PUSH1 0x20 DUP7 ADD PUSH2 0x82C JUMP JUMPDEST DUP1 DUP5 ADD SWAP2 POP POP SWAP3 SWAP2 POP POP JUMP JUMPDEST PUSH32 0x20616865616420636F6D706172656420746F206368696C640000000000000000 DUP2 MSTORE POP JUMP JUMPDEST PUSH0 PUSH2 0x89A DUP3 PUSH2 0x800 JUMP JUMPDEST SWAP2 POP PUSH2 0x8A6 DUP3 DUP5 PUSH2 0x83A JUMP JUMPDEST SWAP2 POP PUSH2 0x8B1 DUP3 PUSH2 0x86A JUMP JUMPDEST PUSH1 0x18 DUP3 ADD SWAP2 POP DUP2 SWAP1 POP SWAP3 SWAP2 POP POP JUMP JUMPDEST PUSH0 PUSH1 0x1F NOT PUSH1 0x1F DUP4 ADD AND SWAP1 POP SWAP2 SWAP1 POP JUMP JUMPDEST PUSH0 PUSH2 0x8DA DUP3 PUSH2 0x822 JUMP JUMPDEST PUSH2 0x8E4 DUP2 DUP6 PUSH2 0x6AA JUMP JUMPDEST SWAP4 POP PUSH2 0x8F4 DUP2 DUP6 PUSH1 0x20 DUP7 ADD PUSH2 0x82C JUMP JUMPDEST PUSH2 0x8FD DUP2 PUSH2 0x8C0 JUMP JUMPDEST DUP5 ADD SWAP2 POP POP SWAP3 SWAP2 POP POP JUMP JUMPDEST PUSH0 PUSH1 0x20 DUP3 ADD SWAP1 POP DUP2 DUP2 SUB PUSH0 DUP4 ADD MSTORE PUSH2 0x920 DUP2 DUP5 PUSH2 0x8D0 JUMP JUMPDEST SWAP1 POP SWAP3 SWAP2 POP POP JUMP JUMPDEST PUSH32 0x4F627365727665722D456C69676962696C697479206D7573742062652061746C PUSH0 DUP3 ADD MSTORE PUSH32 0x6561737420000000000000000000000000000000000000000000000000000000 PUSH1 0x20 DUP3 ADD MSTORE POP JUMP JUMPDEST PUSH0 PUSH2 0x982 PUSH1 0x25 DUP4 PUSH2 0x7A8 JUMP JUMPDEST SWAP2 POP PUSH2 0x98D DUP3 PUSH2 0x928 JUMP JUMPDEST PUSH1 0x25 DUP3 ADD SWAP1 POP SWAP2 SWAP1 POP JUMP JUMPDEST PUSH32 0x20616865616420636F6D706172656420746F20706172656E7400000000000000 DUP2 MSTORE POP JUMP JUMPDEST PUSH0 PUSH2 0x9C8 DUP3 PUSH2 0x976 JUMP JUMPDEST SWAP2 POP PUSH2 0x9D4 DUP3 DUP5 PUSH2 0x83A JUMP JUMPDEST SWAP2 POP PUSH2 0x9DF DUP3 PUSH2 0x998 JUMP JUMPDEST PUSH1 0x19 DUP3 ADD SWAP2 POP DUP2 SWAP1 POP SWAP3 SWAP2 POP POP JUMP JUMPDEST PUSH32 0x656D657267656E63795769746864726177616C5F676C6F62616C4C696D697420 PUSH0 DUP3 ADD MSTORE PUSH32 0x6D7573742062652067726561746572207468616E203100000000000000000000 PUSH1 0x20 DUP3 ADD MSTORE POP JUMP JUMPDEST PUSH0 PUSH2 0xA48 PUSH1 0x36 DUP4 PUSH2 0x6AA JUMP JUMPDEST SWAP2 POP PUSH2 0xA53 DUP3 PUSH2 0x9EE JUMP JUMPDEST PUSH1 0x40 DUP3 ADD SWAP1 POP SWAP2 SWAP1 POP JUMP JUMPDEST PUSH0 PUSH1 0x20 DUP3 ADD SWAP1 POP DUP2 DUP2 SUB PUSH0 DUP4 ADD MSTORE PUSH2 0xA75 DUP2 PUSH2 0xA3C JUMP JUMPDEST SWAP1 POP SWAP2 SWAP1 POP JUMP JUMPDEST PUSH32 0x4E487B7100000000000000000000000000000000000000000000000000000000 PUSH0 MSTORE PUSH1 0x41 PUSH1 0x4 MSTORE PUSH1 0x24 PUSH0 REVERT JUMPDEST PUSH32 0x4E487B7100000000000000000000000000000000000000000000000000000000 PUSH0 MSTORE PUSH1 0x12 PUSH1 0x4 MSTORE PUSH1 0x24 PUSH0 REVERT JUMPDEST PUSH2 0x24C1 DUP1 PUSH2 0xAE3 PUSH0 CODECOPY PUSH0 RETURN INVALID PUSH1 0x80 PUSH1 0x40 MSTORE PUSH1 0x4 CALLDATASIZE LT PUSH2 0xAA JUMPI PUSH0 CALLDATALOAD PUSH1 0xE0 SHR DUP1 PUSH4 0xAB5E89F9 GT PUSH2 0x63 JUMPI DUP1 PUSH4 0xAB5E89F9 EQ PUSH2 0x1A3 JUMPI DUP1 PUSH4 0xB66B0C95 EQ PUSH2 0x1CD JUMPI DUP1 PUSH4 0xB6992247 EQ PUSH2 0x1F7 JUMPI DUP1 PUSH4 0xD0A1E6E2 EQ PUSH2 0x221 JUMPI DUP1 PUSH4 0xF810125B EQ PUSH2 0x249 JUMPI DUP1 PUSH4 0xFB2420AE EQ PUSH2 0x273 JUMPI PUSH2 0xAB JUMP JUMPDEST DUP1 PUSH4 0x10ECF719 EQ PUSH2 0xAD JUMPI DUP1 PUSH4 0x275558F3 EQ PUSH2 0xD5 JUMPI DUP1 PUSH4 0x2E1A7D4D EQ PUSH2 0xFD JUMPI DUP1 PUSH4 0x4344B094 EQ PUSH2 0x125 JUMPI DUP1 PUSH4 0x5107889A EQ PUSH2 0x14F JUMPI DUP1 PUSH4 0x5D5A8D8A EQ PUSH2 0x179 JUMPI PUSH2 0xAB JUMP JUMPDEST JUMPDEST STOP JUMPDEST CALLVALUE DUP1 ISZERO PUSH2 0xB8 JUMPI PUSH0 PUSH0 REVERT JUMPDEST POP PUSH2 0xD3 PUSH1 0x4 DUP1 CALLDATASIZE SUB DUP2 ADD SWAP1 PUSH2 0xCE SWAP2 SWAP1 PUSH2 0x16A7 JUMP JUMPDEST PUSH2 0x29D JUMP JUMPDEST STOP JUMPDEST CALLVALUE DUP1 ISZERO PUSH2 0xE0 JUMPI PUSH0 PUSH0 REVERT JUMPDEST POP PUSH2 0xFB PUSH1 0x4 DUP1 CALLDATASIZE SUB DUP2 ADD SWAP1 PUSH2 0xF6 SWAP2 SWAP1 PUSH2 0x16A7 JUMP JUMPDEST PUSH2 0x40D JUMP JUMPDEST STOP JUMPDEST CALLVALUE DUP1 ISZERO PUSH2 0x108 JUMPI PUSH0 PUSH0 REVERT JUMPDEST POP PUSH2 0x123 PUSH1 0x4 DUP1 CALLDATASIZE SUB DUP2 ADD SWAP1 PUSH2 0x11E SWAP2 SWAP1 PUSH2 0x16A7 JUMP JUMPDEST PUSH2 0x4EA JUMP JUMPDEST STOP JUMPDEST CALLVALUE DUP1 ISZERO PUSH2 0x130 JUMPI PUSH0 PUSH0 REVERT JUMPDEST POP PUSH2 0x139 PUSH2 0x97B JUMP JUMPDEST PUSH1 0x40 MLOAD PUSH2 0x146 SWAP2 SWAP1 PUSH2 0x16E1 JUMP JUMPDEST PUSH1 0x40 MLOAD DUP1 SWAP2 SUB SWAP1 RETURN JUMPDEST CALLVALUE DUP1 ISZERO PUSH2 0x15A JUMPI PUSH0 PUSH0 REVERT JUMPDEST POP PUSH2 0x163 PUSH2 0x99E JUMP JUMPDEST PUSH1 0x40 MLOAD PUSH2 0x170 SWAP2 SWAP1 PUSH2 0x16E1 JUMP JUMPDEST PUSH1 0x40 MLOAD DUP1 SWAP2 SUB SWAP1 RETURN JUMPDEST CALLVALUE DUP1 ISZERO PUSH2 0x184 JUMPI PUSH0 PUSH0 REVERT JUMPDEST POP PUSH2 0x18D PUSH2 0x9A6 JUMP JUMPDEST PUSH1 0x40 MLOAD PUSH2 0x19A SWAP2 SWAP1 PUSH2 0x16E1 JUMP JUMPDEST PUSH1 0x40 MLOAD DUP1 SWAP2 SUB SWAP1 RETURN JUMPDEST CALLVALUE DUP1 ISZERO PUSH2 0x1AE JUMPI PUSH0 PUSH0 REVERT JUMPDEST POP PUSH2 0x1B7 PUSH2 0x9AD JUMP JUMPDEST PUSH1 0x40 MLOAD PUSH2 0x1C4 SWAP2 SWAP1 PUSH2 0x16E1 JUMP JUMPDEST PUSH1 0x40 MLOAD DUP1 SWAP2 SUB SWAP1 RETURN JUMPDEST CALLVALUE DUP1 ISZERO PUSH2 0x1D8 JUMPI PUSH0 PUSH0 REVERT JUMPDEST POP PUSH2 0x1E1 PUSH2 0x9B5 JUMP JUMPDEST PUSH1 0x40 MLOAD PUSH2 0x1EE SWAP2 SWAP1 PUSH2 0x16E1 JUMP JUMPDEST PUSH1 0x40 MLOAD DUP1 SWAP2 SUB SWAP1 RETURN JUMPDEST CALLVALUE DUP1 ISZERO PUSH2 0x202 JUMPI PUSH0 PUSH0 REVERT JUMPDEST POP PUSH2 0x20B PUSH2 0x9BE JUMP JUMPDEST PUSH1 0x40 MLOAD PUSH2 0x218 SWAP2 SWAP1 PUSH2 0x176A JUMP JUMPDEST PUSH1 0x40 MLOAD DUP1 SWAP2 SUB SWAP1 RETURN JUMPDEST CALLVALUE DUP1 ISZERO PUSH2 0x22C JUMPI PUSH0 PUSH0 REVERT JUMPDEST POP PUSH2 0x247 PUSH1 0x4 DUP1 CALLDATASIZE SUB DUP2 ADD SWAP1 PUSH2 0x242 SWAP2 SWAP1 PUSH2 0x16A7 JUMP JUMPDEST PUSH2 0xAB9 JUMP JUMPDEST STOP JUMPDEST CALLVALUE DUP1 ISZERO PUSH2 0x254 JUMPI PUSH0 PUSH0 REVERT JUMPDEST POP PUSH2 0x25D PUSH2 0x106F JUMP JUMPDEST PUSH1 0x40 MLOAD PUSH2 0x26A SWAP2 SWAP1 PUSH2 0x16E1 JUMP JUMPDEST PUSH1 0x40 MLOAD DUP1 SWAP2 SUB SWAP1 RETURN JUMPDEST CALLVALUE DUP1 ISZERO PUSH2 0x27E JUMPI PUSH0 PUSH0 REVERT JUMPDEST POP PUSH2 0x287 PUSH2 0x11A1 JUMP JUMPDEST PUSH1 0x40 MLOAD PUSH2 0x294 SWAP2 SWAP1 PUSH2 0x176A JUMP JUMPDEST PUSH1 0x40 MLOAD DUP1 SWAP2 SUB SWAP1 RETURN JUMPDEST PUSH1 0x3 PUSH0 SWAP1 SLOAD SWAP1 PUSH2 0x100 EXP SWAP1 DIV PUSH20 0xFFFFFFFFFFFFFFFFFFFFFFFFFFFFFFFFFFFFFFFF AND PUSH20 0xFFFFFFFFFFFFFFFFFFFFFFFFFFFFFFFFFFFFFFFF AND CALLER PUSH20 0xFFFFFFFFFFFFFFFFFFFFFFFFFFFFFFFFFFFFFFFF AND EQ DUP1 PUSH2 0x344 JUMPI POP PUSH1 0x4 PUSH0 SWAP1 SLOAD SWAP1 PUSH2 0x100 EXP SWAP1 DIV PUSH20 0xFFFFFFFFFFFFFFFFFFFFFFFFFFFFFFFFFFFFFFFF AND PUSH20 0xFFFFFFFFFFFFFFFFFFFFFFFFFFFFFFFFFFFFFFFF AND CALLER PUSH20 0xFFFFFFFFFFFFFFFFFFFFFFFFFFFFFFFFFFFFFFFF AND EQ JUMPDEST PUSH2 0x383 JUMPI PUSH1 0x40 MLOAD PUSH32 0x8C379A000000000000000000000000000000000000000000000000000000000 DUP2 MSTORE PUSH1 0x4 ADD PUSH2 0x37A SWAP1 PUSH2 0x1820 JUMP JUMPDEST PUSH1 0x40 MLOAD DUP1 SWAP2 SUB SWAP1 REVERT JUMPDEST PUSH1 0xC SLOAD DUP2 GT ISZERO PUSH2 0x3C8 JUMPI PUSH1 0x40 MLOAD PUSH32 0x8C379A000000000000000000000000000000000000000000000000000000000 DUP2 MSTORE PUSH1 0x4 ADD PUSH2 0x3BF SWAP1 PUSH2 0x18D4 JUMP JUMPDEST PUSH1 0x40 MLOAD DUP1 SWAP2 SUB SWAP1 REVERT JUMPDEST DUP1 PUSH1 0x8 PUSH0 CALLER PUSH20 0xFFFFFFFFFFFFFFFFFFFFFFFFFFFFFFFFFFFFFFFF AND PUSH20 0xFFFFFFFFFFFFFFFFFFFFFFFFFFFFFFFFFFFFFFFF AND DUP2 MSTORE PUSH1 0x20 ADD SWAP1 DUP2 MSTORE PUSH1 0x20 ADD PUSH0 KECCAK256 DUP2 SWAP1 SSTORE POP POP JUMP JUMPDEST PUSH0 PUSH0 SWAP1 SLOAD SWAP1 PUSH2 0x100 EXP SWAP1 DIV PUSH20 0xFFFFFFFFFFFFFFFFFFFFFFFFFFFFFFFFFFFFFFFF AND PUSH20 0xFFFFFFFFFFFFFFFFFFFFFFFFFFFFFFFFFFFFFFFF AND CALLER PUSH20 0xFFFFFFFFFFFFFFFFFFFFFFFFFFFFFFFFFFFFFFFF AND EQ PUSH2 0x49B JUMPI PUSH1 0x40 MLOAD PUSH32 0x8C379A000000000000000000000000000000000000000000000000000000000 DUP2 MSTORE PUSH1 0x4 ADD PUSH2 0x492 SWAP1 PUSH2 0x1962 JUMP JUMPDEST PUSH1 0x40 MLOAD DUP1 SWAP2 SUB SWAP1 REVERT JUMPDEST PUSH1 0xC SLOAD DUP2 GT ISZERO PUSH2 0x4E0 JUMPI PUSH1 0x40 MLOAD PUSH32 0x8C379A000000000000000000000000000000000000000000000000000000000 DUP2 MSTORE PUSH1 0x4 ADD PUSH2 0x4D7 SWAP1 PUSH2 0x18D4 JUMP JUMPDEST PUSH1 0x40 MLOAD DUP1 SWAP2 SUB SWAP1 REVERT JUMPDEST DUP1 PUSH1 0x9 DUP2 SWAP1 SSTORE POP POP JUMP JUMPDEST PUSH0 DUP2 GT PUSH2 0x52C JUMPI PUSH1 0x40 MLOAD PUSH32 0x8C379A000000000000000000000000000000000000000000000000000000000 DUP2 MSTORE PUSH1 0x4 ADD PUSH2 0x523 SWAP1 PUSH2 0x19F0 JUMP JUMPDEST PUSH1 0x40 MLOAD DUP1 SWAP2 SUB SWAP1 REVERT JUMPDEST PUSH0 SELFBALANCE GT PUSH2 0x56E JUMPI PUSH1 0x40 MLOAD PUSH32 0x8C379A000000000000000000000000000000000000000000000000000000000 DUP2 MSTORE PUSH1 0x4 ADD PUSH2 0x565 SWAP1 PUSH2 0x1A58 JUMP JUMPDEST PUSH1 0x40 MLOAD DUP1 SWAP2 SUB SWAP1 REVERT JUMPDEST PUSH0 DUP2 SWAP1 POP DUP1 SELFBALANCE LT ISZERO PUSH2 0x57E JUMPI SELFBALANCE SWAP1 POP JUMPDEST PUSH0 PUSH0 SWAP1 SLOAD SWAP1 PUSH2 0x100 EXP SWAP1 DIV PUSH20 0xFFFFFFFFFFFFFFFFFFFFFFFFFFFFFFFFFFFFFFFF AND PUSH20 0xFFFFFFFFFFFFFFFFFFFFFFFFFFFFFFFFFFFFFFFF AND CALLER PUSH20 0xFFFFFFFFFFFFFFFFFFFFFFFFFFFFFFFFFFFFFFFF AND SUB PUSH2 0x647 JUMPI PUSH1 0x5 SLOAD TIMESTAMP GT PUSH2 0x5E1 PUSH1 0x5 SLOAD PUSH2 0x11EA JUMP JUMPDEST PUSH1 0x40 MLOAD PUSH1 0x20 ADD PUSH2 0x5F1 SWAP2 SWAP1 PUSH2 0x1AFC JUMP JUMPDEST PUSH1 0x40 MLOAD PUSH1 0x20 DUP2 DUP4 SUB SUB DUP2 MSTORE SWAP1 PUSH1 0x40 MSTORE SWAP1 PUSH2 0x641 JUMPI PUSH1 0x40 MLOAD PUSH32 0x8C379A000000000000000000000000000000000000000000000000000000000 DUP2 MSTORE PUSH1 0x4 ADD PUSH2 0x638 SWAP2 SWAP1 PUSH2 0x176A JUMP JUMPDEST PUSH1 0x40 MLOAD DUP1 SWAP2 SUB SWAP1 REVERT JUMPDEST POP PUSH2 0x8CE JUMP JUMPDEST PUSH1 0x1 PUSH0 SWAP1 SLOAD SWAP1 PUSH2 0x100 EXP SWAP1 DIV PUSH20 0xFFFFFFFFFFFFFFFFFFFFFFFFFFFFFFFFFFFFFFFF AND PUSH20 0xFFFFFFFFFFFFFFFFFFFFFFFFFFFFFFFFFFFFFFFF AND CALLER PUSH20 0xFFFFFFFFFFFFFFFFFFFFFFFFFFFFFFFFFFFFFFFF AND EQ DUP1 PUSH2 0x6EE JUMPI POP PUSH1 0x2 PUSH0 SWAP1 SLOAD SWAP1 PUSH2 0x100 EXP SWAP1 DIV PUSH20 0xFFFFFFFFFFFFFFFFFFFFFFFFFFFFFFFFFFFFFFFF AND PUSH20 0xFFFFFFFFFFFFFFFFFFFFFFFFFFFFFFFFFFFFFFFF AND CALLER PUSH20 0xFFFFFFFFFFFFFFFFFFFFFFFFFFFFFFFFFFFFFFFF AND EQ JUMPDEST ISZERO PUSH2 0x769 JUMPI PUSH1 0x6 SLOAD TIMESTAMP GT PUSH2 0x703 PUSH1 0x6 SLOAD PUSH2 0x11EA JUMP JUMPDEST PUSH1 0x40 MLOAD PUSH1 0x20 ADD PUSH2 0x713 SWAP2 SWAP1 PUSH2 0x1BA0 JUMP JUMPDEST PUSH1 0x40 MLOAD PUSH1 0x20 DUP2 DUP4 SUB SUB DUP2 MSTORE SWAP1 PUSH1 0x40 MSTORE SWAP1 PUSH2 0x763 JUMPI PUSH1 0x40 MLOAD PUSH32 0x8C379A000000000000000000000000000000000000000000000000000000000 DUP2 MSTORE PUSH1 0x4 ADD PUSH2 0x75A SWAP2 SWAP1 PUSH2 0x176A JUMP JUMPDEST PUSH1 0x40 MLOAD DUP1 SWAP2 SUB SWAP1 REVERT JUMPDEST POP PUSH2 0x8CD JUMP JUMPDEST PUSH1 0x3 PUSH0 SWAP1 SLOAD SWAP1 PUSH2 0x100 EXP SWAP1 DIV PUSH20 0xFFFFFFFFFFFFFFFFFFFFFFFFFFFFFFFFFFFFFFFF AND PUSH20 0xFFFFFFFFFFFFFFFFFFFFFFFFFFFFFFFFFFFFFFFF AND CALLER PUSH20 0xFFFFFFFFFFFFFFFFFFFFFFFFFFFFFFFFFFFFFFFF AND EQ DUP1 PUSH2 0x810 JUMPI POP PUSH1 0x4 PUSH0 SWAP1 SLOAD SWAP1 PUSH2 0x100 EXP SWAP1 DIV PUSH20 0xFFFFFFFFFFFFFFFFFFFFFFFFFFFFFFFFFFFFFFFF AND PUSH20 0xFFFFFFFFFFFFFFFFFFFFFFFFFFFFFFFFFFFFFFFF AND CALLER PUSH20 0xFFFFFFFFFFFFFFFFFFFFFFFFFFFFFFFFFFFFFFFF AND EQ JUMPDEST ISZERO PUSH2 0x88B JUMPI PUSH1 0x7 SLOAD TIMESTAMP GT PUSH2 0x825 PUSH1 0x7 SLOAD PUSH2 0x11EA JUMP JUMPDEST PUSH1 0x40 MLOAD PUSH1 0x20 ADD PUSH2 0x835 SWAP2 SWAP1 PUSH2 0x1C40 JUMP JUMPDEST PUSH1 0x40 MLOAD PUSH1 0x20 DUP2 DUP4 SUB SUB DUP2 MSTORE SWAP1 PUSH1 0x40 MSTORE SWAP1 PUSH2 0x885 JUMPI PUSH1 0x40 MLOAD PUSH32 0x8C379A000000000000000000000000000000000000000000000000000000000 DUP2 MSTORE PUSH1 0x4 ADD PUSH2 0x87C SWAP2 SWAP1 PUSH2 0x176A JUMP JUMPDEST PUSH1 0x40 MLOAD DUP1 SWAP2 SUB SWAP1 REVERT JUMPDEST POP PUSH2 0x8CC JUMP JUMPDEST PUSH0 PUSH2 0x8CB JUMPI PUSH1 0x40 MLOAD PUSH32 0x8C379A000000000000000000000000000000000000000000000000000000000 DUP2 MSTORE PUSH1 0x4 ADD PUSH2 0x8C2 SWAP1 PUSH2 0x1D06 JUMP JUMPDEST PUSH1 0x40 MLOAD DUP1 SWAP2 SUB SWAP1 REVERT JUMPDEST JUMPDEST JUMPDEST JUMPDEST PUSH0 CALLER PUSH20 0xFFFFFFFFFFFFFFFFFFFFFFFFFFFFFFFFFFFFFFFF AND DUP3 PUSH1 0x40 MLOAD PUSH2 0x8F3 SWAP1 PUSH2 0x1D51 JUMP JUMPDEST PUSH0 PUSH1 0x40 MLOAD DUP1 DUP4 SUB DUP2 DUP6 DUP8 GAS CALL SWAP3 POP POP POP RETURNDATASIZE DUP1 PUSH0 DUP2 EQ PUSH2 0x92D JUMPI PUSH1 0x40 MLOAD SWAP2 POP PUSH1 0x1F NOT PUSH1 0x3F RETURNDATASIZE ADD AND DUP3 ADD PUSH1 0x40 MSTORE RETURNDATASIZE DUP3 MSTORE RETURNDATASIZE PUSH0 PUSH1 0x20 DUP5 ADD RETURNDATACOPY PUSH2 0x932 JUMP JUMPDEST PUSH1 0x60 SWAP2 POP JUMPDEST POP POP SWAP1 POP DUP1 PUSH2 0x976 JUMPI PUSH1 0x40 MLOAD PUSH32 0x8C379A000000000000000000000000000000000000000000000000000000000 DUP2 MSTORE PUSH1 0x4 ADD PUSH2 0x96D SWAP1 PUSH2 0x1DAF JUMP JUMPDEST PUSH1 0x40 MLOAD DUP1 SWAP2 SUB SWAP1 REVERT JUMPDEST POP POP POP JUMP JUMPDEST PUSH0 PUSH0 PUSH2 0x985 PUSH2 0x106F JUMP JUMPDEST SWAP1 POP PUSH1 0x9 SLOAD DUP2 LT ISZERO PUSH2 0x997 JUMPI PUSH1 0x9 SLOAD SWAP1 POP JUMPDEST DUP1 SWAP2 POP POP SWAP1 JUMP JUMPDEST PUSH4 0x3C26700 DUP2 JUMP JUMPDEST PUSH3 0x15180 DUP2 JUMP JUMPDEST PUSH4 0x1E13380 DUP2 JUMP JUMPDEST PUSH0 PUSH1 0xC SLOAD SWAP1 POP SWAP1 JUMP JUMPDEST PUSH1 0x60 PUSH2 0x9E9 PUSH0 PUSH0 SWAP1 SLOAD SWAP1 PUSH2 0x100 EXP SWAP1 DIV PUSH20 0xFFFFFFFFFFFFFFFFFFFFFFFFFFFFFFFFFFFFFFFF AND PUSH2 0x12B4 JUMP JUMPDEST PUSH2 0xA13 PUSH1 0x1 PUSH0 SWAP1 SLOAD SWAP1 PUSH2 0x100 EXP SWAP1 DIV PUSH20 0xFFFFFFFFFFFFFFFFFFFFFFFFFFFFFFFFFFFFFFFF AND PUSH2 0x12B4 JUMP JUMPDEST PUSH2 0xA3D PUSH1 0x2 PUSH0 SWAP1 SLOAD SWAP1 PUSH2 0x100 EXP SWAP1 DIV PUSH20 0xFFFFFFFFFFFFFFFFFFFFFFFFFFFFFFFFFFFFFFFF AND PUSH2 0x12B4 JUMP JUMPDEST PUSH2 0xA67 PUSH1 0x3 PUSH0 SWAP1 SLOAD SWAP1 PUSH2 0x100 EXP SWAP1 DIV PUSH20 0xFFFFFFFFFFFFFFFFFFFFFFFFFFFFFFFFFFFFFFFF AND PUSH2 0x12B4 JUMP JUMPDEST PUSH2 0xA91 PUSH1 0x4 PUSH0 SWAP1 SLOAD SWAP1 PUSH2 0x100 EXP SWAP1 DIV PUSH20 0xFFFFFFFFFFFFFFFFFFFFFFFFFFFFFFFFFFFFFFFF AND PUSH2 0x12B4 JUMP JUMPDEST PUSH1 0x40 MLOAD PUSH1 0x20 ADD PUSH2 0xAA5 SWAP6 SWAP5 SWAP4 SWAP3 SWAP2 SWAP1 PUSH2 0x1EB1 JUMP JUMPDEST PUSH1 0x40 MLOAD PUSH1 0x20 DUP2 DUP4 SUB SUB DUP2 MSTORE SWAP1 PUSH1 0x40 MSTORE SWAP1 POP SWAP1 JUMP JUMPDEST PUSH0 DUP2 GT PUSH2 0xAFB JUMPI PUSH1 0x40 MLOAD PUSH32 0x8C379A000000000000000000000000000000000000000000000000000000000 DUP2 MSTORE PUSH1 0x4 ADD PUSH2 0xAF2 SWAP1 PUSH2 0x19F0 JUMP JUMPDEST PUSH1 0x40 MLOAD DUP1 SWAP2 SUB SWAP1 REVERT JUMPDEST PUSH0 SELFBALANCE GT PUSH2 0xB3D JUMPI PUSH1 0x40 MLOAD PUSH32 0x8C379A000000000000000000000000000000000000000000000000000000000 DUP2 MSTORE PUSH1 0x4 ADD PUSH2 0xB34 SWAP1 PUSH2 0x1A58 JUMP JUMPDEST PUSH1 0x40 MLOAD DUP1 SWAP2 SUB SWAP1 REVERT JUMPDEST PUSH0 DUP2 SWAP1 POP DUP2 SELFBALANCE LT ISZERO PUSH2 0xB4D JUMPI SELFBALANCE SWAP1 POP JUMPDEST PUSH0 PUSH1 0x8 PUSH0 PUSH1 0x3 PUSH0 SWAP1 SLOAD SWAP1 PUSH2 0x100 EXP SWAP1 DIV PUSH20 0xFFFFFFFFFFFFFFFFFFFFFFFFFFFFFFFFFFFFFFFF AND PUSH20 0xFFFFFFFFFFFFFFFFFFFFFFFFFFFFFFFFFFFFFFFF AND PUSH20 0xFFFFFFFFFFFFFFFFFFFFFFFFFFFFFFFFFFFFFFFF AND DUP2 MSTORE PUSH1 0x20 ADD SWAP1 DUP2 MSTORE PUSH1 0x20 ADD PUSH0 KECCAK256 SLOAD SWAP1 POP PUSH1 0x8 PUSH0 PUSH1 0x4 PUSH0 SWAP1 SLOAD SWAP1 PUSH2 0x100 EXP SWAP1 DIV PUSH20 0xFFFFFFFFFFFFFFFFFFFFFFFFFFFFFFFFFFFFFFFF AND PUSH20 0xFFFFFFFFFFFFFFFFFFFFFFFFFFFFFFFFFFFFFFFF AND PUSH20 0xFFFFFFFFFFFFFFFFFFFFFFFFFFFFFFFFFFFFFFFF AND DUP2 MSTORE PUSH1 0x20 ADD SWAP1 DUP2 MSTORE PUSH1 0x20 ADD PUSH0 KECCAK256 SLOAD DUP2 LT ISZERO PUSH2 0xC77 JUMPI PUSH1 0x8 PUSH0 PUSH1 0x4 PUSH0 SWAP1 SLOAD SWAP1 PUSH2 0x100 EXP SWAP1 DIV PUSH20 0xFFFFFFFFFFFFFFFFFFFFFFFFFFFFFFFFFFFFFFFF AND PUSH20 0xFFFFFFFFFFFFFFFFFFFFFFFFFFFFFFFFFFFFFFFF AND PUSH20 0xFFFFFFFFFFFFFFFFFFFFFFFFFFFFFFFFFFFFFFFF AND DUP2 MSTORE PUSH1 0x20 ADD SWAP1 DUP2 MSTORE PUSH1 0x20 ADD PUSH0 KECCAK256 SLOAD SWAP1 POP JUMPDEST PUSH0 PUSH0 SWAP1 SLOAD SWAP1 PUSH2 0x100 EXP SWAP1 DIV PUSH20 0xFFFFFFFFFFFFFFFFFFFFFFFFFFFFFFFFFFFFFFFF AND PUSH20 0xFFFFFFFFFFFFFFFFFFFFFFFFFFFFFFFFFFFFFFFF AND CALLER PUSH20 0xFFFFFFFFFFFFFFFFFFFFFFFFFFFFFFFFFFFFFFFF AND SUB PUSH2 0xDC4 JUMPI DUP1 DUP3 GT ISZERO PUSH2 0xCD7 DUP3 PUSH2 0x11EA JUMP JUMPDEST PUSH1 0x40 MLOAD PUSH1 0x20 ADD PUSH2 0xCE7 SWAP2 SWAP1 PUSH2 0x1FF2 JUMP JUMPDEST PUSH1 0x40 MLOAD PUSH1 0x20 DUP2 DUP4 SUB SUB DUP2 MSTORE SWAP1 PUSH1 0x40 MSTORE SWAP1 PUSH2 0xD37 JUMPI PUSH1 0x40 MLOAD PUSH32 0x8C379A000000000000000000000000000000000000000000000000000000000 DUP2 MSTORE PUSH1 0x4 ADD PUSH2 0xD2E SWAP2 SWAP1 PUSH2 0x176A JUMP JUMPDEST PUSH1 0x40 MLOAD DUP1 SWAP2 SUB SWAP1 REVERT JUMPDEST POP PUSH3 0x15180 PUSH1 0xA SLOAD PUSH2 0xD49 SWAP2 SWAP1 PUSH2 0x2040 JUMP JUMPDEST TIMESTAMP GT PUSH2 0xD57 PUSH3 0x15180 PUSH2 0x11EA JUMP JUMPDEST PUSH1 0x40 MLOAD PUSH1 0x20 ADD PUSH2 0xD67 SWAP2 SWAP1 PUSH2 0x2109 JUMP JUMPDEST PUSH1 0x40 MLOAD PUSH1 0x20 DUP2 DUP4 SUB SUB DUP2 MSTORE SWAP1 PUSH1 0x40 MSTORE SWAP1 PUSH2 0xDB7 JUMPI PUSH1 0x40 MLOAD PUSH32 0x8C379A000000000000000000000000000000000000000000000000000000000 DUP2 MSTORE PUSH1 0x4 ADD PUSH2 0xDAE SWAP2 SWAP1 PUSH2 0x176A JUMP JUMPDEST PUSH1 0x40 MLOAD DUP1 SWAP2 SUB SWAP1 REVERT JUMPDEST POP TIMESTAMP PUSH1 0xA DUP2 SWAP1 SSTORE POP PUSH2 0xFC1 JUMP JUMPDEST PUSH1 0x1 PUSH0 SWAP1 SLOAD SWAP1 PUSH2 0x100 EXP SWAP1 DIV PUSH20 0xFFFFFFFFFFFFFFFFFFFFFFFFFFFFFFFFFFFFFFFF AND PUSH20 0xFFFFFFFFFFFFFFFFFFFFFFFFFFFFFFFFFFFFFFFF AND CALLER PUSH20 0xFFFFFFFFFFFFFFFFFFFFFFFFFFFFFFFFFFFFFFFF AND EQ DUP1 PUSH2 0xE6B JUMPI POP PUSH1 0x2 PUSH0 SWAP1 SLOAD SWAP1 PUSH2 0x100 EXP SWAP1 DIV PUSH20 0xFFFFFFFFFFFFFFFFFFFFFFFFFFFFFFFFFFFFFFFF AND PUSH20 0xFFFFFFFFFFFFFFFFFFFFFFFFFFFFFFFFFFFFFFFF AND CALLER PUSH20 0xFFFFFFFFFFFFFFFFFFFFFFFFFFFFFFFFFFFFFFFF AND EQ JUMPDEST ISZERO PUSH2 0xF7F JUMPI PUSH0 DUP2 SWAP1 POP PUSH1 0x9 SLOAD DUP2 LT ISZERO PUSH2 0xE84 JUMPI PUSH1 0x9 SLOAD SWAP1 POP JUMPDEST DUP1 DUP4 GT ISZERO PUSH2 0xE91 DUP3 PUSH2 0x11EA JUMP JUMPDEST PUSH1 0x40 MLOAD PUSH1 0x20 ADD PUSH2 0xEA1 SWAP2 SWAP1 PUSH2 0x21A9 JUMP JUMPDEST PUSH1 0x40 MLOAD PUSH1 0x20 DUP2 DUP4 SUB SUB DUP2 MSTORE SWAP1 PUSH1 0x40 MSTORE SWAP1 PUSH2 0xEF1 JUMPI PUSH1 0x40 MLOAD PUSH32 0x8C379A000000000000000000000000000000000000000000000000000000000 DUP2 MSTORE PUSH1 0x4 ADD PUSH2 0xEE8 SWAP2 SWAP1 PUSH2 0x176A JUMP JUMPDEST PUSH1 0x40 MLOAD DUP1 SWAP2 SUB SWAP1 REVERT JUMPDEST POP PUSH3 0x15180 PUSH1 0xB SLOAD PUSH2 0xF03 SWAP2 SWAP1 PUSH2 0x2040 JUMP JUMPDEST TIMESTAMP GT PUSH2 0xF11 PUSH3 0x15180 PUSH2 0x11EA JUMP JUMPDEST PUSH1 0x40 MLOAD PUSH1 0x20 ADD PUSH2 0xF21 SWAP2 SWAP1 PUSH2 0x21F0 JUMP JUMPDEST PUSH1 0x40 MLOAD PUSH1 0x20 DUP2 DUP4 SUB SUB DUP2 MSTORE SWAP1 PUSH1 0x40 MSTORE SWAP1 PUSH2 0xF71 JUMPI PUSH1 0x40 MLOAD PUSH32 0x8C379A000000000000000000000000000000000000000000000000000000000 DUP2 MSTORE PUSH1 0x4 ADD PUSH2 0xF68 SWAP2 SWAP1 PUSH2 0x176A JUMP JUMPDEST PUSH1 0x40 MLOAD DUP1 SWAP2 SUB SWAP1 REVERT JUMPDEST POP TIMESTAMP PUSH1 0xB DUP2 SWAP1 SSTORE POP POP PUSH2 0xFC0 JUMP JUMPDEST PUSH0 PUSH2 0xFBF JUMPI PUSH1 0x40 MLOAD PUSH32 0x8C379A000000000000000000000000000000000000000000000000000000000 DUP2 MSTORE PUSH1 0x4 ADD PUSH2 0xFB6 SWAP1 PUSH2 0x2290 JUMP JUMPDEST PUSH1 0x40 MLOAD DUP1 SWAP2 SUB SWAP1 REVERT JUMPDEST JUMPDEST JUMPDEST PUSH0 CALLER PUSH20 0xFFFFFFFFFFFFFFFFFFFFFFFFFFFFFFFFFFFFFFFF AND DUP4 PUSH1 0x40 MLOAD PUSH2 0xFE6 SWAP1 PUSH2 0x1D51 JUMP JUMPDEST PUSH0 PUSH1 0x40 MLOAD DUP1 DUP4 SUB DUP2 DUP6 DUP8 GAS CALL SWAP3 POP POP POP RETURNDATASIZE DUP1 PUSH0 DUP2 EQ PUSH2 0x1020 JUMPI PUSH1 0x40 MLOAD SWAP2 POP PUSH1 0x1F NOT PUSH1 0x3F RETURNDATASIZE ADD AND DUP3 ADD PUSH1 0x40 MSTORE RETURNDATASIZE DUP3 MSTORE RETURNDATASIZE PUSH0 PUSH1 0x20 DUP5 ADD RETURNDATACOPY PUSH2 0x1025 JUMP JUMPDEST PUSH1 0x60 SWAP2 POP JUMPDEST POP POP SWAP1 POP DUP1 PUSH2 0x1069 JUMPI PUSH1 0x40 MLOAD PUSH32 0x8C379A000000000000000000000000000000000000000000000000000000000 DUP2 MSTORE PUSH1 0x4 ADD PUSH2 0x1060 SWAP1 PUSH2 0x1DAF JUMP JUMPDEST PUSH1 0x40 MLOAD DUP1 SWAP2 SUB SWAP1 REVERT JUMPDEST POP POP POP POP JUMP JUMPDEST PUSH0 PUSH0 PUSH1 0x8 PUSH0 PUSH1 0x3 PUSH0 SWAP1 SLOAD SWAP1 PUSH2 0x100 EXP SWAP1 DIV PUSH20 0xFFFFFFFFFFFFFFFFFFFFFFFFFFFFFFFFFFFFFFFF AND PUSH20 0xFFFFFFFFFFFFFFFFFFFFFFFFFFFFFFFFFFFFFFFF AND PUSH20 0xFFFFFFFFFFFFFFFFFFFFFFFFFFFFFFFFFFFFFFFF AND DUP2 MSTORE PUSH1 0x20 ADD SWAP1 DUP2 MSTORE PUSH1 0x20 ADD PUSH0 KECCAK256 SLOAD SWAP1 POP PUSH1 0x8 PUSH0 PUSH1 0x4 PUSH0 SWAP1 SLOAD SWAP1 PUSH2 0x100 EXP SWAP1 DIV PUSH20 0xFFFFFFFFFFFFFFFFFFFFFFFFFFFFFFFFFFFFFFFF AND PUSH20 0xFFFFFFFFFFFFFFFFFFFFFFFFFFFFFFFFFFFFFFFF AND PUSH20 0xFFFFFFFFFFFFFFFFFFFFFFFFFFFFFFFFFFFFFFFF AND DUP2 MSTORE PUSH1 0x20 ADD SWAP1 DUP2 MSTORE PUSH1 0x20 ADD PUSH0 KECCAK256 SLOAD DUP2 LT ISZERO PUSH2 0x119A JUMPI PUSH1 0x8 PUSH0 PUSH1 0x4 PUSH0 SWAP1 SLOAD SWAP1 PUSH2 0x100 EXP SWAP1 DIV PUSH20 0xFFFFFFFFFFFFFFFFFFFFFFFFFFFFFFFFFFFFFFFF AND PUSH20 0xFFFFFFFFFFFFFFFFFFFFFFFFFFFFFFFFFFFFFFFF AND PUSH20 0xFFFFFFFFFFFFFFFFFFFFFFFFFFFFFFFFFFFFFFFF AND DUP2 MSTORE PUSH1 0x20 ADD SWAP1 DUP2 MSTORE PUSH1 0x20 ADD PUSH0 KECCAK256 SLOAD SWAP1 POP JUMPDEST DUP1 SWAP2 POP POP SWAP1 JUMP JUMPDEST PUSH1 0x60 PUSH2 0x11AE PUSH1 0x5 SLOAD PUSH2 0x11EA JUMP JUMPDEST PUSH2 0x11B9 PUSH1 0x6 SLOAD PUSH2 0x11EA JUMP JUMPDEST PUSH2 0x11C4 PUSH1 0x7 SLOAD PUSH2 0x11EA JUMP JUMPDEST PUSH1 0x40 MLOAD PUSH1 0x20 ADD PUSH2 0x11D6 SWAP4 SWAP3 SWAP2 SWAP1 PUSH2 0x22FA JUMP JUMPDEST PUSH1 0x40 MLOAD PUSH1 0x20 DUP2 DUP4 SUB SUB DUP2 MSTORE SWAP1 PUSH1 0x40 MSTORE SWAP1 POP SWAP1 JUMP JUMPDEST PUSH1 0x60 PUSH0 PUSH1 0x1 PUSH2 0x11F8 DUP5 PUSH2 0x12E1 JUMP JUMPDEST ADD SWAP1 POP PUSH0 DUP2 PUSH8 0xFFFFFFFFFFFFFFFF DUP2 GT ISZERO PUSH2 0x1216 JUMPI PUSH2 0x1215 PUSH2 0x2375 JUMP JUMPDEST JUMPDEST PUSH1 0x40 MLOAD SWAP1 DUP1 DUP3 MSTORE DUP1 PUSH1 0x1F ADD PUSH1 0x1F NOT AND PUSH1 0x20 ADD DUP3 ADD PUSH1 0x40 MSTORE DUP1 ISZERO PUSH2 0x1248 JUMPI DUP2 PUSH1 0x20 ADD PUSH1 0x1 DUP3 MUL DUP1 CALLDATASIZE DUP4 CALLDATACOPY DUP1 DUP3 ADD SWAP2 POP POP SWAP1 POP JUMPDEST POP SWAP1 POP PUSH0 DUP3 PUSH1 0x20 DUP4 ADD ADD SWAP1 POP JUMPDEST PUSH1 0x1 ISZERO PUSH2 0x12A9 JUMPI DUP1 DUP1 PUSH1 0x1 SWAP1 SUB SWAP2 POP POP PUSH32 0x3031323334353637383961626364656600000000000000000000000000000000 PUSH1 0xA DUP7 MOD BYTE DUP2 MSTORE8 PUSH1 0xA DUP6 DUP2 PUSH2 0x129E JUMPI PUSH2 0x129D PUSH2 0x23A2 JUMP JUMPDEST JUMPDEST DIV SWAP5 POP PUSH0 DUP6 SUB PUSH2 0x1255 JUMPI JUMPDEST DUP2 SWAP4 POP POP POP POP SWAP2 SWAP1 POP JUMP JUMPDEST PUSH1 0x60 PUSH2 0x12DA DUP3 PUSH20 0xFFFFFFFFFFFFFFFFFFFFFFFFFFFFFFFFFFFFFFFF AND PUSH1 0x14 PUSH1 0xFF AND PUSH2 0x1432 JUMP JUMPDEST SWAP1 POP SWAP2 SWAP1 POP JUMP JUMPDEST PUSH0 PUSH0 PUSH0 SWAP1 POP PUSH27 0x184F03E93FF9F4DAA797ED6E38ED64BF6A1F010000000000000000 DUP4 LT PUSH2 0x133D JUMPI PUSH27 0x184F03E93FF9F4DAA797ED6E38ED64BF6A1F010000000000000000 DUP4 DUP2 PUSH2 0x1333 JUMPI PUSH2 0x1332 PUSH2 0x23A2 JUMP JUMPDEST JUMPDEST DIV SWAP3 POP PUSH1 0x40 DUP2 ADD SWAP1 POP JUMPDEST PUSH14 0x4EE2D6D415B85ACEF8100000000 DUP4 LT PUSH2 0x137A JUMPI PUSH14 0x4EE2D6D415B85ACEF8100000000 DUP4 DUP2 PUSH2 0x1370 JUMPI PUSH2 0x136F PUSH2 0x23A2 JUMP JUMPDEST JUMPDEST DIV SWAP3 POP PUSH1 0x20 DUP2 ADD SWAP1 POP JUMPDEST PUSH7 0x2386F26FC10000 DUP4 LT PUSH2 0x13A9 JUMPI PUSH7 0x2386F26FC10000 DUP4 DUP2 PUSH2 0x139F JUMPI PUSH2 0x139E PUSH2 0x23A2 JUMP JUMPDEST JUMPDEST DIV SWAP3 POP PUSH1 0x10 DUP2 ADD SWAP1 POP JUMPDEST PUSH4 0x5F5E100 DUP4 LT PUSH2 0x13D2 JUMPI PUSH4 0x5F5E100 DUP4 DUP2 PUSH2 0x13C8 JUMPI PUSH2 0x13C7 PUSH2 0x23A2 JUMP JUMPDEST JUMPDEST DIV SWAP3 POP PUSH1 0x8 DUP2 ADD SWAP1 POP JUMPDEST PUSH2 0x2710 DUP4 LT PUSH2 0x13F7 JUMPI PUSH2 0x2710 DUP4 DUP2 PUSH2 0x13ED JUMPI PUSH2 0x13EC PUSH2 0x23A2 JUMP JUMPDEST JUMPDEST DIV SWAP3 POP PUSH1 0x4 DUP2 ADD SWAP1 POP JUMPDEST PUSH1 0x64 DUP4 LT PUSH2 0x141A JUMPI PUSH1 0x64 DUP4 DUP2 PUSH2 0x1410 JUMPI PUSH2 0x140F PUSH2 0x23A2 JUMP JUMPDEST JUMPDEST DIV SWAP3 POP PUSH1 0x2 DUP2 ADD SWAP1 POP JUMPDEST PUSH1 0xA DUP4 LT PUSH2 0x1429 JUMPI PUSH1 0x1 DUP2 ADD SWAP1 POP JUMPDEST DUP1 SWAP2 POP POP SWAP2 SWAP1 POP JUMP JUMPDEST PUSH1 0x60 PUSH0 DUP4 SWAP1 POP PUSH0 PUSH1 0x2 DUP5 PUSH1 0x2 PUSH2 0x1448 SWAP2 SWAP1 PUSH2 0x23CF JUMP JUMPDEST PUSH2 0x1452 SWAP2 SWAP1 PUSH2 0x2040 JUMP JUMPDEST PUSH8 0xFFFFFFFFFFFFFFFF DUP2 GT ISZERO PUSH2 0x146B JUMPI PUSH2 0x146A PUSH2 0x2375 JUMP JUMPDEST JUMPDEST PUSH1 0x40 MLOAD SWAP1 DUP1 DUP3 MSTORE DUP1 PUSH1 0x1F ADD PUSH1 0x1F NOT AND PUSH1 0x20 ADD DUP3 ADD PUSH1 0x40 MSTORE DUP1 ISZERO PUSH2 0x149D JUMPI DUP2 PUSH1 0x20 ADD PUSH1 0x1 DUP3 MUL DUP1 CALLDATASIZE DUP4 CALLDATACOPY DUP1 DUP3 ADD SWAP2 POP POP SWAP1 POP JUMPDEST POP SWAP1 POP PUSH32 0x3000000000000000000000000000000000000000000000000000000000000000 DUP2 PUSH0 DUP2 MLOAD DUP2 LT PUSH2 0x14D4 JUMPI PUSH2 0x14D3 PUSH2 0x2410 JUMP JUMPDEST JUMPDEST PUSH1 0x20 ADD ADD SWAP1 PUSH31 0xFFFFFFFFFFFFFFFFFFFFFFFFFFFFFFFFFFFFFFFFFFFFFFFFFFFFFFFFFFFFFF NOT AND SWAP1 DUP2 PUSH0 BYTE SWAP1 MSTORE8 POP PUSH32 0x7800000000000000000000000000000000000000000000000000000000000000 DUP2 PUSH1 0x1 DUP2 MLOAD DUP2 LT PUSH2 0x1537 JUMPI PUSH2 0x1536 PUSH2 0x2410 JUMP JUMPDEST JUMPDEST PUSH1 0x20 ADD ADD SWAP1 PUSH31 0xFFFFFFFFFFFFFFFFFFFFFFFFFFFFFFFFFFFFFFFFFFFFFFFFFFFFFFFFFFFFFF NOT AND SWAP1 DUP2 PUSH0 BYTE SWAP1 MSTORE8 POP PUSH0 PUSH1 0x1 DUP6 PUSH1 0x2 PUSH2 0x1575 SWAP2 SWAP1 PUSH2 0x23CF JUMP JUMPDEST PUSH2 0x157F SWAP2 SWAP1 PUSH2 0x2040 JUMP JUMPDEST SWAP1 POP JUMPDEST PUSH1 0x1 DUP2 GT ISZERO PUSH2 0x161E JUMPI PUSH32 0x3031323334353637383961626364656600000000000000000000000000000000 PUSH1 0xF DUP5 AND PUSH1 0x10 DUP2 LT PUSH2 0x15C1 JUMPI PUSH2 0x15C0 PUSH2 0x2410 JUMP JUMPDEST JUMPDEST BYTE PUSH1 0xF8 SHL DUP3 DUP3 DUP2 MLOAD DUP2 LT PUSH2 0x15D8 JUMPI PUSH2 0x15D7 PUSH2 0x2410 JUMP JUMPDEST JUMPDEST PUSH1 0x20 ADD ADD SWAP1 PUSH31 0xFFFFFFFFFFFFFFFFFFFFFFFFFFFFFFFFFFFFFFFFFFFFFFFFFFFFFFFFFFFFFF NOT AND SWAP1 DUP2 PUSH0 BYTE SWAP1 MSTORE8 POP PUSH1 0x4 DUP4 SWAP1 SHR SWAP3 POP DUP1 PUSH2 0x1617 SWAP1 PUSH2 0x243D JUMP JUMPDEST SWAP1 POP PUSH2 0x1582 JUMP JUMPDEST POP PUSH0 DUP3 EQ PUSH2 0x1665 JUMPI DUP5 DUP5 PUSH1 0x40 MLOAD PUSH32 0xE22E27EB00000000000000000000000000000000000000000000000000000000 DUP2 MSTORE PUSH1 0x4 ADD PUSH2 0x165C SWAP3 SWAP2 SWAP1 PUSH2 0x2464 JUMP JUMPDEST PUSH1 0x40 MLOAD DUP1 SWAP2 SUB SWAP1 REVERT JUMPDEST DUP1 SWAP3 POP POP POP SWAP3 SWAP2 POP POP JUMP JUMPDEST PUSH0 PUSH0 REVERT JUMPDEST PUSH0 DUP2 SWAP1 POP SWAP2 SWAP1 POP JUMP JUMPDEST PUSH2 0x1686 DUP2 PUSH2 0x1674 JUMP JUMPDEST DUP2 EQ PUSH2 0x1690 JUMPI PUSH0 PUSH0 REVERT JUMPDEST POP JUMP JUMPDEST PUSH0 DUP2 CALLDATALOAD SWAP1 POP PUSH2 0x16A1 DUP2 PUSH2 0x167D JUMP JUMPDEST SWAP3 SWAP2 POP POP JUMP JUMPDEST PUSH0 PUSH1 0x20 DUP3 DUP5 SUB SLT ISZERO PUSH2 0x16BC JUMPI PUSH2 0x16BB PUSH2 0x1670 JUMP JUMPDEST JUMPDEST PUSH0 PUSH2 0x16C9 DUP5 DUP3 DUP6 ADD PUSH2 0x1693 JUMP JUMPDEST SWAP2 POP POP SWAP3 SWAP2 POP POP JUMP JUMPDEST PUSH2 0x16DB DUP2 PUSH2 0x1674 JUMP JUMPDEST DUP3 MSTORE POP POP JUMP JUMPDEST PUSH0 PUSH1 0x20 DUP3 ADD SWAP1 POP PUSH2 0x16F4 PUSH0 DUP4 ADD DUP5 PUSH2 0x16D2 JUMP JUMPDEST SWAP3 SWAP2 POP POP JUMP JUMPDEST PUSH0 DUP2 MLOAD SWAP1 POP SWAP2 SWAP1 POP JUMP JUMPDEST PUSH0 DUP3 DUP3 MSTORE PUSH1 0x20 DUP3 ADD SWAP1 POP SWAP3 SWAP2 POP POP JUMP JUMPDEST DUP3 DUP2 DUP4 MCOPY PUSH0 DUP4 DUP4 ADD MSTORE POP POP POP JUMP JUMPDEST PUSH0 PUSH1 0x1F NOT PUSH1 0x1F DUP4 ADD AND SWAP1 POP SWAP2 SWAP1 POP JUMP JUMPDEST PUSH0 PUSH2 0x173C DUP3 PUSH2 0x16FA JUMP JUMPDEST PUSH2 0x1746 DUP2 DUP6 PUSH2 0x1704 JUMP JUMPDEST SWAP4 POP PUSH2 0x1756 DUP2 DUP6 PUSH1 0x20 DUP7 ADD PUSH2 0x1714 JUMP JUMPDEST PUSH2 0x175F DUP2 PUSH2 0x1722 JUMP JUMPDEST DUP5 ADD SWAP2 POP POP SWAP3 SWAP2 POP POP JUMP JUMPDEST PUSH0 PUSH1 0x20 DUP3 ADD SWAP1 POP DUP2 DUP2 SUB PUSH0 DUP4 ADD MSTORE PUSH2 0x1782 DUP2 DUP5 PUSH2 0x1732 JUMP JUMPDEST SWAP1 POP SWAP3 SWAP2 POP POP JUMP JUMPDEST PUSH32 0x4F6E6C79206F627365727665722873292061726520616C6C6F77656420746F20 PUSH0 DUP3 ADD MSTORE PUSH32 0x757064617465206368696C64456D657267656E63795769746864726177616C4C PUSH1 0x20 DUP3 ADD MSTORE PUSH32 0x696D697400000000000000000000000000000000000000000000000000000000 PUSH1 0x40 DUP3 ADD MSTORE POP JUMP JUMPDEST PUSH0 PUSH2 0x180A PUSH1 0x44 DUP4 PUSH2 0x1704 JUMP JUMPDEST SWAP2 POP PUSH2 0x1815 DUP3 PUSH2 0x178A JUMP JUMPDEST PUSH1 0x60 DUP3 ADD SWAP1 POP SWAP2 SWAP1 POP JUMP JUMPDEST PUSH0 PUSH1 0x20 DUP3 ADD SWAP1 POP DUP2 DUP2 SUB PUSH0 DUP4 ADD MSTORE PUSH2 0x1837 DUP2 PUSH2 0x17FE JUMP JUMPDEST SWAP1 POP SWAP2 SWAP1 POP JUMP JUMPDEST PUSH32 0x416D6F756E74206D757374206265206C657373207468616E206F722065717561 PUSH0 DUP3 ADD MSTORE PUSH32 0x6C20746F2074686520656D657267656E63795769746864726177616C5F676C6F PUSH1 0x20 DUP3 ADD MSTORE PUSH32 0x62616C4C696D6974000000000000000000000000000000000000000000000000 PUSH1 0x40 DUP3 ADD MSTORE POP JUMP JUMPDEST PUSH0 PUSH2 0x18BE PUSH1 0x48 DUP4 PUSH2 0x1704 JUMP JUMPDEST SWAP2 POP PUSH2 0x18C9 DUP3 PUSH2 0x183E JUMP JUMPDEST PUSH1 0x60 DUP3 ADD SWAP1 POP SWAP2 SWAP1 POP JUMP JUMPDEST PUSH0 PUSH1 0x20 DUP3 ADD SWAP1 POP DUP2 DUP2 SUB PUSH0 DUP4 ADD MSTORE PUSH2 0x18EB DUP2 PUSH2 0x18B2 JUMP JUMPDEST SWAP1 POP SWAP2 SWAP1 POP JUMP JUMPDEST PUSH32 0x4F6E6C79206368696C6420697320616C6C6F77656420746F2075706461746520 PUSH0 DUP3 ADD MSTORE PUSH32 0x706172656E74456D657267656E63795769746864726177616C4C696D69740000 PUSH1 0x20 DUP3 ADD MSTORE POP JUMP JUMPDEST PUSH0 PUSH2 0x194C PUSH1 0x3E DUP4 PUSH2 0x1704 JUMP JUMPDEST SWAP2 POP PUSH2 0x1957 DUP3 PUSH2 0x18F2 JUMP JUMPDEST PUSH1 0x40 DUP3 ADD SWAP1 POP SWAP2 SWAP1 POP JUMP JUMPDEST PUSH0 PUSH1 0x20 DUP3 ADD SWAP1 POP DUP2 DUP2 SUB PUSH0 DUP4 ADD MSTORE PUSH2 0x1979 DUP2 PUSH2 0x1940 JUMP JUMPDEST SWAP1 POP SWAP2 SWAP1 POP JUMP JUMPDEST PUSH32 0x416D6F756E74206D7573742062652067726561746572207468616E206F722065 PUSH0 DUP3 ADD MSTORE PUSH32 0x7175616C20746F20300000000000000000000000000000000000000000000000 PUSH1 0x20 DUP3 ADD MSTORE POP JUMP JUMPDEST PUSH0 PUSH2 0x19DA PUSH1 0x29 DUP4 PUSH2 0x1704 JUMP JUMPDEST SWAP2 POP PUSH2 0x19E5 DUP3 PUSH2 0x1980 JUMP JUMPDEST PUSH1 0x40 DUP3 ADD SWAP1 POP SWAP2 SWAP1 POP JUMP JUMPDEST PUSH0 PUSH1 0x20 DUP3 ADD SWAP1 POP DUP2 DUP2 SUB PUSH0 DUP4 ADD MSTORE PUSH2 0x1A07 DUP2 PUSH2 0x19CE JUMP JUMPDEST SWAP1 POP SWAP2 SWAP1 POP JUMP JUMPDEST PUSH32 0x4E6F20616D6F756E74206C65667420746F207769746864726177000000000000 PUSH0 DUP3 ADD MSTORE POP JUMP JUMPDEST PUSH0 PUSH2 0x1A42 PUSH1 0x1A DUP4 PUSH2 0x1704 JUMP JUMPDEST SWAP2 POP PUSH2 0x1A4D DUP3 PUSH2 0x1A0E JUMP JUMPDEST PUSH1 0x20 DUP3 ADD SWAP1 POP SWAP2 SWAP1 POP JUMP JUMPDEST PUSH0 PUSH1 0x20 DUP3 ADD SWAP1 POP DUP2 DUP2 SUB PUSH0 DUP4 ADD MSTORE PUSH2 0x1A6F DUP2 PUSH2 0x1A36 JUMP JUMPDEST SWAP1 POP SWAP2 SWAP1 POP JUMP JUMPDEST PUSH32 0x4368696C64206D75737420776169742074696C6C2074696D657374616D700000 DUP2 MSTORE POP JUMP JUMPDEST PUSH0 DUP2 SWAP1 POP SWAP3 SWAP2 POP POP JUMP JUMPDEST PUSH0 PUSH2 0x1AB0 DUP3 PUSH2 0x16FA JUMP JUMPDEST PUSH2 0x1ABA DUP2 DUP6 PUSH2 0x1A9C JUMP JUMPDEST SWAP4 POP PUSH2 0x1ACA DUP2 DUP6 PUSH1 0x20 DUP7 ADD PUSH2 0x1714 JUMP JUMPDEST DUP1 DUP5 ADD SWAP2 POP POP SWAP3 SWAP2 POP POP JUMP JUMPDEST PUSH32 0x20746F206D616B65206E6F726D616C207769746864726177616C287329000000 DUP2 MSTORE POP JUMP JUMPDEST PUSH0 PUSH2 0x1B06 DUP3 PUSH2 0x1A76 JUMP JUMPDEST PUSH1 0x1E DUP3 ADD SWAP2 POP PUSH2 0x1B16 DUP3 DUP5 PUSH2 0x1AA6 JUMP JUMPDEST SWAP2 POP PUSH2 0x1B21 DUP3 PUSH2 0x1AD6 JUMP JUMPDEST PUSH1 0x1D DUP3 ADD SWAP2 POP DUP2 SWAP1 POP SWAP3 SWAP2 POP POP JUMP JUMPDEST PUSH32 0x506172656E74287329206D75737420776169742074696C6C2074696D65737461 PUSH0 DUP3 ADD MSTORE PUSH32 0x6D70000000000000000000000000000000000000000000000000000000000000 PUSH1 0x20 DUP3 ADD MSTORE POP JUMP JUMPDEST PUSH0 PUSH2 0x1B8A PUSH1 0x22 DUP4 PUSH2 0x1A9C JUMP JUMPDEST SWAP2 POP PUSH2 0x1B95 DUP3 PUSH2 0x1B30 JUMP JUMPDEST PUSH1 0x22 DUP3 ADD SWAP1 POP SWAP2 SWAP1 POP JUMP JUMPDEST PUSH0 PUSH2 0x1BAA DUP3 PUSH2 0x1B7E JUMP JUMPDEST SWAP2 POP PUSH2 0x1BB6 DUP3 DUP5 PUSH2 0x1AA6 JUMP JUMPDEST SWAP2 POP PUSH2 0x1BC1 DUP3 PUSH2 0x1AD6 JUMP JUMPDEST PUSH1 0x1D DUP3 ADD SWAP2 POP DUP2 SWAP1 POP SWAP3 SWAP2 POP POP JUMP JUMPDEST PUSH32 0x4F62736572766572287329206D75737420776169742074696C6C2074696D6573 PUSH0 DUP3 ADD MSTORE PUSH32 0x74616D7000000000000000000000000000000000000000000000000000000000 PUSH1 0x20 DUP3 ADD MSTORE POP JUMP JUMPDEST PUSH0 PUSH2 0x1C2A PUSH1 0x24 DUP4 PUSH2 0x1A9C JUMP JUMPDEST SWAP2 POP PUSH2 0x1C35 DUP3 PUSH2 0x1BD0 JUMP JUMPDEST PUSH1 0x24 DUP3 ADD SWAP1 POP SWAP2 SWAP1 POP JUMP JUMPDEST PUSH0 PUSH2 0x1C4A DUP3 PUSH2 0x1C1E JUMP JUMPDEST SWAP2 POP PUSH2 0x1C56 DUP3 DUP5 PUSH2 0x1AA6 JUMP JUMPDEST SWAP2 POP PUSH2 0x1C61 DUP3 PUSH2 0x1AD6 JUMP JUMPDEST PUSH1 0x1D DUP3 ADD SWAP2 POP DUP2 SWAP1 POP SWAP3 SWAP2 POP POP JUMP JUMPDEST PUSH32 0x4F6E6C79206368696C642C20706172656E742873292026206F62736572766572 PUSH0 DUP3 ADD MSTORE PUSH32 0x2873292061726520616C6C6F77656420746F206D616B65207769746864726177 PUSH1 0x20 DUP3 ADD MSTORE PUSH32 0x616C730000000000000000000000000000000000000000000000000000000000 PUSH1 0x40 DUP3 ADD MSTORE POP JUMP JUMPDEST PUSH0 PUSH2 0x1CF0 PUSH1 0x43 DUP4 PUSH2 0x1704 JUMP JUMPDEST SWAP2 POP PUSH2 0x1CFB DUP3 PUSH2 0x1C70 JUMP JUMPDEST PUSH1 0x60 DUP3 ADD SWAP1 POP SWAP2 SWAP1 POP JUMP JUMPDEST PUSH0 PUSH1 0x20 DUP3 ADD SWAP1 POP DUP2 DUP2 SUB PUSH0 DUP4 ADD MSTORE PUSH2 0x1D1D DUP2 PUSH2 0x1CE4 JUMP JUMPDEST SWAP1 POP SWAP2 SWAP1 POP JUMP JUMPDEST PUSH0 DUP2 SWAP1 POP SWAP3 SWAP2 POP POP JUMP JUMPDEST POP JUMP JUMPDEST PUSH0 PUSH2 0x1D3C PUSH0 DUP4 PUSH2 0x1D24 JUMP JUMPDEST SWAP2 POP PUSH2 0x1D47 DUP3 PUSH2 0x1D2E JUMP JUMPDEST PUSH0 DUP3 ADD SWAP1 POP SWAP2 SWAP1 POP JUMP JUMPDEST PUSH0 PUSH2 0x1D5B DUP3 PUSH2 0x1D31 JUMP JUMPDEST SWAP2 POP DUP2 SWAP1 POP SWAP2 SWAP1 POP JUMP JUMPDEST PUSH32 0x5769746864726177616C206661696C6564000000000000000000000000000000 PUSH0 DUP3 ADD MSTORE POP JUMP JUMPDEST PUSH0 PUSH2 0x1D99 PUSH1 0x11 DUP4 PUSH2 0x1704 JUMP JUMPDEST SWAP2 POP PUSH2 0x1DA4 DUP3 PUSH2 0x1D65 JUMP JUMPDEST PUSH1 0x20 DUP3 ADD SWAP1 POP SWAP2 SWAP1 POP JUMP JUMPDEST PUSH0 PUSH1 0x20 DUP3 ADD SWAP1 POP DUP2 DUP2 SUB PUSH0 DUP4 ADD MSTORE PUSH2 0x1DC6 DUP2 PUSH2 0x1D8D JUMP JUMPDEST SWAP1 POP SWAP2 SWAP1 POP JUMP JUMPDEST PUSH32 0x4368696C64000000000000000000000000000000000000000000000000000000 DUP2 MSTORE POP JUMP JUMPDEST PUSH32 0x20200A0000000000000000000000000000000000000000000000000000000000 DUP2 MSTORE POP JUMP JUMPDEST PUSH32 0x506172656E742D31000000000000000000000000000000000000000000000000 DUP2 MSTORE POP JUMP JUMPDEST PUSH32 0x506172656E742D32000000000000000000000000000000000000000000000000 DUP2 MSTORE POP JUMP JUMPDEST PUSH32 0x4F627365727665722D3100000000000000000000000000000000000000000000 DUP2 MSTORE POP JUMP JUMPDEST PUSH32 0x4F627365727665722D3200000000000000000000000000000000000000000000 DUP2 MSTORE POP JUMP JUMPDEST PUSH0 PUSH2 0x1EBB DUP3 PUSH2 0x1DCD JUMP JUMPDEST PUSH1 0x5 DUP3 ADD SWAP2 POP PUSH2 0x1ECB DUP3 DUP9 PUSH2 0x1AA6 JUMP JUMPDEST SWAP2 POP PUSH2 0x1ED6 DUP3 PUSH2 0x1DF3 JUMP JUMPDEST PUSH1 0x3 DUP3 ADD SWAP2 POP PUSH2 0x1EE5 DUP3 PUSH2 0x1E19 JUMP JUMPDEST PUSH1 0x8 DUP3 ADD SWAP2 POP PUSH2 0x1EF5 DUP3 DUP8 PUSH2 0x1AA6 JUMP JUMPDEST SWAP2 POP PUSH2 0x1F00 DUP3 PUSH2 0x1DF3 JUMP JUMPDEST PUSH1 0x3 DUP3 ADD SWAP2 POP PUSH2 0x1F0F DUP3 PUSH2 0x1E3F JUMP JUMPDEST PUSH1 0x8 DUP3 ADD SWAP2 POP PUSH2 0x1F1F DUP3 DUP7 PUSH2 0x1AA6 JUMP JUMPDEST SWAP2 POP PUSH2 0x1F2A DUP3 PUSH2 0x1DF3 JUMP JUMPDEST PUSH1 0x3 DUP3 ADD SWAP2 POP PUSH2 0x1F39 DUP3 PUSH2 0x1E65 JUMP JUMPDEST PUSH1 0xA DUP3 ADD SWAP2 POP PUSH2 0x1F49 DUP3 DUP6 PUSH2 0x1AA6 JUMP JUMPDEST SWAP2 POP PUSH2 0x1F54 DUP3 PUSH2 0x1DF3 JUMP JUMPDEST PUSH1 0x3 DUP3 ADD SWAP2 POP PUSH2 0x1F63 DUP3 PUSH2 0x1E8B JUMP JUMPDEST PUSH1 0xA DUP3 ADD SWAP2 POP PUSH2 0x1F73 DUP3 DUP5 PUSH2 0x1AA6 JUMP JUMPDEST SWAP2 POP DUP2 SWAP1 POP SWAP7 SWAP6 POP POP POP POP POP POP JUMP JUMPDEST PUSH32 0x4D617820656D657267656E63792D7769746864726177616C206C696D69742066 PUSH0 DUP3 ADD MSTORE PUSH32 0x6F72206368696C64203D20000000000000000000000000000000000000000000 PUSH1 0x20 DUP3 ADD MSTORE POP JUMP JUMPDEST PUSH0 PUSH2 0x1FDC PUSH1 0x2B DUP4 PUSH2 0x1A9C JUMP JUMPDEST SWAP2 POP PUSH2 0x1FE7 DUP3 PUSH2 0x1F82 JUMP JUMPDEST PUSH1 0x2B DUP3 ADD SWAP1 POP SWAP2 SWAP1 POP JUMP JUMPDEST PUSH0 PUSH2 0x1FFC DUP3 PUSH2 0x1FD0 JUMP JUMPDEST SWAP2 POP PUSH2 0x2008 DUP3 DUP5 PUSH2 0x1AA6 JUMP JUMPDEST SWAP2 POP DUP2 SWAP1 POP SWAP3 SWAP2 POP POP JUMP JUMPDEST PUSH32 0x4E487B7100000000000000000000000000000000000000000000000000000000 PUSH0 MSTORE PUSH1 0x11 PUSH1 0x4 MSTORE PUSH1 0x24 PUSH0 REVERT JUMPDEST PUSH0 PUSH2 0x204A DUP3 PUSH2 0x1674 JUMP JUMPDEST SWAP2 POP PUSH2 0x2055 DUP4 PUSH2 0x1674 JUMP JUMPDEST SWAP3 POP DUP3 DUP3 ADD SWAP1 POP DUP1 DUP3 GT ISZERO PUSH2 0x206D JUMPI PUSH2 0x206C PUSH2 0x2013 JUMP JUMPDEST JUMPDEST SWAP3 SWAP2 POP POP JUMP JUMPDEST PUSH32 0x4368696C64206D75737420776169742061746C65617374200000000000000000 DUP2 MSTORE POP JUMP JUMPDEST PUSH32 0x207365636F6E64732074696C6C206E65787420656D657267656E637920776974 PUSH0 DUP3 ADD MSTORE PUSH32 0x6864726177616C2063616E206265206D61646500000000000000000000000000 PUSH1 0x20 DUP3 ADD MSTORE POP JUMP JUMPDEST PUSH0 PUSH2 0x20F3 PUSH1 0x33 DUP4 PUSH2 0x1A9C JUMP JUMPDEST SWAP2 POP PUSH2 0x20FE DUP3 PUSH2 0x2099 JUMP JUMPDEST PUSH1 0x33 DUP3 ADD SWAP1 POP SWAP2 SWAP1 POP JUMP JUMPDEST PUSH0 PUSH2 0x2113 DUP3 PUSH2 0x2073 JUMP JUMPDEST PUSH1 0x18 DUP3 ADD SWAP2 POP PUSH2 0x2123 DUP3 DUP5 PUSH2 0x1AA6 JUMP JUMPDEST SWAP2 POP PUSH2 0x212E DUP3 PUSH2 0x20E7 JUMP JUMPDEST SWAP2 POP DUP2 SWAP1 POP SWAP3 SWAP2 POP POP JUMP JUMPDEST PUSH32 0x4D617820656D657267656E63792D7769746864726177616C206C696D69742066 PUSH0 DUP3 ADD MSTORE PUSH32 0x6F7220706172656E7473203D2000000000000000000000000000000000000000 PUSH1 0x20 DUP3 ADD MSTORE POP JUMP JUMPDEST PUSH0 PUSH2 0x2193 PUSH1 0x2D DUP4 PUSH2 0x1A9C JUMP JUMPDEST SWAP2 POP PUSH2 0x219E DUP3 PUSH2 0x2139 JUMP JUMPDEST PUSH1 0x2D DUP3 ADD SWAP1 POP SWAP2 SWAP1 POP JUMP JUMPDEST PUSH0 PUSH2 0x21B3 DUP3 PUSH2 0x2187 JUMP JUMPDEST SWAP2 POP PUSH2 0x21BF DUP3 DUP5 PUSH2 0x1AA6 JUMP JUMPDEST SWAP2 POP DUP2 SWAP1 POP SWAP3 SWAP2 POP POP JUMP JUMPDEST PUSH32 0x506172656E74287329206D75737420776169742061746C656173742000000000 DUP2 MSTORE POP JUMP JUMPDEST PUSH0 PUSH2 0x21FA DUP3 PUSH2 0x21CA JUMP JUMPDEST PUSH1 0x1C DUP3 ADD SWAP2 POP PUSH2 0x220A DUP3 DUP5 PUSH2 0x1AA6 JUMP JUMPDEST SWAP2 POP PUSH2 0x2215 DUP3 PUSH2 0x20E7 JUMP JUMPDEST SWAP2 POP DUP2 SWAP1 POP SWAP3 SWAP2 POP POP JUMP JUMPDEST PUSH32 0x456D657267656E6379207769746864726177616C2063616E206F6E6C79206265 PUSH0 DUP3 ADD MSTORE PUSH32 0x206D61646520627920706172656E747320616E64206368696C64000000000000 PUSH1 0x20 DUP3 ADD MSTORE POP JUMP JUMPDEST PUSH0 PUSH2 0x227A PUSH1 0x3A DUP4 PUSH2 0x1704 JUMP JUMPDEST SWAP2 POP PUSH2 0x2285 DUP3 PUSH2 0x2220 JUMP JUMPDEST PUSH1 0x40 DUP3 ADD SWAP1 POP SWAP2 SWAP1 POP JUMP JUMPDEST PUSH0 PUSH1 0x20 DUP3 ADD SWAP1 POP DUP2 DUP2 SUB PUSH0 DUP4 ADD MSTORE PUSH2 0x22A7 DUP2 PUSH2 0x226E JUMP JUMPDEST SWAP1 POP SWAP2 SWAP1 POP JUMP JUMPDEST PUSH32 0x506172656E742873290000000000000000000000000000000000000000000000 DUP2 MSTORE POP JUMP JUMPDEST PUSH32 0x4F62736572766572287329000000000000000000000000000000000000000000 DUP2 MSTORE POP JUMP JUMPDEST PUSH0 PUSH2 0x2304 DUP3 PUSH2 0x1DCD JUMP JUMPDEST PUSH1 0x5 DUP3 ADD SWAP2 POP PUSH2 0x2314 DUP3 DUP7 PUSH2 0x1AA6 JUMP JUMPDEST SWAP2 POP PUSH2 0x231F DUP3 PUSH2 0x1DF3 JUMP JUMPDEST PUSH1 0x3 DUP3 ADD SWAP2 POP PUSH2 0x232E DUP3 PUSH2 0x22AE JUMP JUMPDEST PUSH1 0x9 DUP3 ADD SWAP2 POP PUSH2 0x233E DUP3 DUP6 PUSH2 0x1AA6 JUMP JUMPDEST SWAP2 POP PUSH2 0x2349 DUP3 PUSH2 0x1DF3 JUMP JUMPDEST PUSH1 0x3 DUP3 ADD SWAP2 POP PUSH2 0x2358 DUP3 PUSH2 0x22D4 JUMP JUMPDEST PUSH1 0xB DUP3 ADD SWAP2 POP PUSH2 0x2368 DUP3 DUP5 PUSH2 0x1AA6 JUMP JUMPDEST SWAP2 POP DUP2 SWAP1 POP SWAP5 SWAP4 POP POP POP POP JUMP JUMPDEST PUSH32 0x4E487B7100000000000000000000000000000000000000000000000000000000 PUSH0 MSTORE PUSH1 0x41 PUSH1 0x4 MSTORE PUSH1 0x24 PUSH0 REVERT JUMPDEST PUSH32 0x4E487B7100000000000000000000000000000000000000000000000000000000 PUSH0 MSTORE PUSH1 0x12 PUSH1 0x4 MSTORE PUSH1 0x24 PUSH0 REVERT JUMPDEST PUSH0 PUSH2 0x23D9 DUP3 PUSH2 0x1674 JUMP JUMPDEST SWAP2 POP PUSH2 0x23E4 DUP4 PUSH2 0x1674 JUMP JUMPDEST SWAP3 POP DUP3 DUP3 MUL PUSH2 0x23F2 DUP2 PUSH2 0x1674 JUMP JUMPDEST SWAP2 POP DUP3 DUP3 DIV DUP5 EQ DUP4 ISZERO OR PUSH2 0x2409 JUMPI PUSH2 0x2408 PUSH2 0x2013 JUMP JUMPDEST JUMPDEST POP SWAP3 SWAP2 POP POP JUMP JUMPDEST PUSH32 0x4E487B7100000000000000000000000000000000000000000000000000000000 PUSH0 MSTORE PUSH1 0x32 PUSH1 0x4 MSTORE PUSH1 0x24 PUSH0 REVERT JUMPDEST PUSH0 PUSH2 0x2447 DUP3 PUSH2 0x1674 JUMP JUMPDEST SWAP2 POP PUSH0 DUP3 SUB PUSH2 0x2459 JUMPI PUSH2 0x2458 PUSH2 0x2013 JUMP JUMPDEST JUMPDEST PUSH1 0x1 DUP3 SUB SWAP1 POP SWAP2 SWAP1 POP JUMP JUMPDEST PUSH0 PUSH1 0x40 DUP3 ADD SWAP1 POP PUSH2 0x2477 PUSH0 DUP4 ADD DUP6 PUSH2 0x16D2 JUMP JUMPDEST PUSH2 0x2484 PUSH1 0x20 DUP4 ADD DUP5 PUSH2 0x16D2 JUMP JUMPDEST SWAP4 SWAP3 POP POP POP JUMP INVALID LOG2 PUSH5 0x6970667358 0x22 SLT KECCAK256 0xA8 XOR EXTDELEGATECALL 0xCA PUSH12 0xADA55ED0395C1034EC6AD7B5 0xA5 PUSH17 0x3473508EA4E078F3C4C68BF69664736F6C PUSH4 0x4300081E STOP CALLER "
		},
		"gasEstimates": {
			"creation": {
				"codeDepositCost": "1881800",
				"executionCost": "infinite",
				"totalCost": "infinite"
			},
			"external": {
				"": "217",
				"MIN_REQUIRED_DIFF_BETWEEN_CHILD_AND_PARENT_ELIGIBILITY()": "325",
				"MIN_REQUIRED_DIFF_BETWEEN_PARENT_AND_OBSERVER_ELIGIBILITY()": "414",
				"MIN_REQUIRED_TIME_LAPSE_BEFORE_EMERGENCY_WITHDRAWAL()": "436",
				"getChildEmergencyWithdrawalLimit()": "13435",
				"getEligibilityTimestamps()": "infinite",
				"getGlobalEmergencyWithdrawalLimit()": "2454",
				"getParentEmergencyWithdrawalLimit()": "17694",
				"getStakeholders()": "infinite",
				"makeEmergencyWithdrawal(uint256)": "infinite",
				"updateChildEmergencyWithdrawalLimit(uint256)": "29072",
				"updateParentEmergencyWithdrawalLimit(uint256)": "26832",
				"withdraw(uint256)": "infinite"
			}
		},
		"methodIdentifiers": {
			"MIN_REQUIRED_DIFF_BETWEEN_CHILD_AND_PARENT_ELIGIBILITY()": "ab5e89f9",
			"MIN_REQUIRED_DIFF_BETWEEN_PARENT_AND_OBSERVER_ELIGIBILITY()": "5107889a",
			"MIN_REQUIRED_TIME_LAPSE_BEFORE_EMERGENCY_WITHDRAWAL()": "5d5a8d8a",
			"getChildEmergencyWithdrawalLimit()": "f810125b",
			"getEligibilityTimestamps()": "fb2420ae",
			"getGlobalEmergencyWithdrawalLimit()": "b66b0c95",
			"getParentEmergencyWithdrawalLimit()": "4344b094",
			"getStakeholders()": "b6992247",
			"makeEmergencyWithdrawal(uint256)": "d0a1e6e2",
			"updateChildEmergencyWithdrawalLimit(uint256)": "10ecf719",
			"updateParentEmergencyWithdrawalLimit(uint256)": "275558f3",
			"withdraw(uint256)": "2e1a7d4d"
		}
	},
	"abi": [
		{
			"inputs": [
				{
					"internalType": "address",
					"name": "child",
					"type": "address"
				},
				{
					"internalType": "address",
					"name": "parent1",
					"type": "address"
				},
				{
					"internalType": "address",
					"name": "parent2",
					"type": "address"
				},
				{
					"internalType": "address",
					"name": "observer1",
					"type": "address"
				},
				{
					"internalType": "address",
					"name": "observer2",
					"type": "address"
				},
				{
					"internalType": "uint256",
					"name": "childEligibilityTimestamp",
					"type": "uint256"
				},
				{
					"internalType": "uint256",
					"name": "parentEligibilityTimestamp",
					"type": "uint256"
				},
				{
					"internalType": "uint256",
					"name": "observerEligibilityTimestamp",
					"type": "uint256"
				},
				{
					"internalType": "uint256",
					"name": "emergencyWithdrawal_globalLimit",
					"type": "uint256"
				}
			],
			"stateMutability": "payable",
			"type": "constructor"
		},
		{
			"inputs": [
				{
					"internalType": "uint256",
					"name": "value",
					"type": "uint256"
				},
				{
					"internalType": "uint256",
					"name": "length",
					"type": "uint256"
				}
			],
			"name": "StringsInsufficientHexLength",
			"type": "error"
		},
		{
			"stateMutability": "payable",
			"type": "fallback"
		},
		{
			"inputs": [],
			"name": "MIN_REQUIRED_DIFF_BETWEEN_CHILD_AND_PARENT_ELIGIBILITY",
			"outputs": [
				{
					"internalType": "uint256",
					"name": "",
					"type": "uint256"
				}
			],
			"stateMutability": "view",
			"type": "function"
		},
		{
			"inputs": [],
			"name": "MIN_REQUIRED_DIFF_BETWEEN_PARENT_AND_OBSERVER_ELIGIBILITY",
			"outputs": [
				{
					"internalType": "uint256",
					"name": "",
					"type": "uint256"
				}
			],
			"stateMutability": "view",
			"type": "function"
		},
		{
			"inputs": [],
			"name": "MIN_REQUIRED_TIME_LAPSE_BEFORE_EMERGENCY_WITHDRAWAL",
			"outputs": [
				{
					"internalType": "uint256",
					"name": "",
					"type": "uint256"
				}
			],
			"stateMutability": "view",
			"type": "function"
		},
		{
			"inputs": [],
			"name": "getChildEmergencyWithdrawalLimit",
			"outputs": [
				{
					"internalType": "uint256",
					"name": "",
					"type": "uint256"
				}
			],
			"stateMutability": "view",
			"type": "function"
		},
		{
			"inputs": [],
			"name": "getEligibilityTimestamps",
			"outputs": [
				{
					"internalType": "string",
					"name": "",
					"type": "string"
				}
			],
			"stateMutability": "view",
			"type": "function"
		},
		{
			"inputs": [],
			"name": "getGlobalEmergencyWithdrawalLimit",
			"outputs": [
				{
					"internalType": "uint256",
					"name": "",
					"type": "uint256"
				}
			],
			"stateMutability": "view",
			"type": "function"
		},
		{
			"inputs": [],
			"name": "getParentEmergencyWithdrawalLimit",
			"outputs": [
				{
					"internalType": "uint256",
					"name": "",
					"type": "uint256"
				}
			],
			"stateMutability": "view",
			"type": "function"
		},
		{
			"inputs": [],
			"name": "getStakeholders",
			"outputs": [
				{
					"internalType": "string",
					"name": "",
					"type": "string"
				}
			],
			"stateMutability": "view",
			"type": "function"
		},
		{
			"inputs": [
				{
					"internalType": "uint256",
					"name": "amount",
					"type": "uint256"
				}
			],
			"name": "makeEmergencyWithdrawal",
			"outputs": [],
			"stateMutability": "nonpayable",
			"type": "function"
		},
		{
			"inputs": [
				{
					"internalType": "uint256",
					"name": "amount",
					"type": "uint256"
				}
			],
			"name": "updateChildEmergencyWithdrawalLimit",
			"outputs": [],
			"stateMutability": "nonpayable",
			"type": "function"
		},
		{
			"inputs": [
				{
					"internalType": "uint256",
					"name": "amount",
					"type": "uint256"
				}
			],
			"name": "updateParentEmergencyWithdrawalLimit",
			"outputs": [],
			"stateMutability": "nonpayable",
			"type": "function"
		},
		{
			"inputs": [
				{
					"internalType": "uint256",
					"name": "amount",
					"type": "uint256"
				}
			],
			"name": "withdraw",
			"outputs": [],
			"stateMutability": "nonpayable",
			"type": "function"
		},
		{
			"stateMutability": "payable",
			"type": "receive"
		}
	]
}